{
  "_format": "hh-sol-artifact-1",
  "contractName": "SolRootChildERC1155",
  "sourceName": "contracts/solroot/SolRootChild.sol",
  "abi": [
    {
      "inputs": [
        {
          "internalType": "string",
          "name": "_name",
          "type": "string"
        },
        {
          "internalType": "string",
          "name": "_symbol",
          "type": "string"
        }
      ],
      "stateMutability": "nonpayable",
      "type": "constructor"
    },
    {
      "inputs": [
        {
          "internalType": "address",
          "name": "spender",
          "type": "address"
        },
        {
          "internalType": "uint256",
          "name": "allowance",
          "type": "uint256"
        },
        {
          "internalType": "uint256",
          "name": "needed",
          "type": "uint256"
        }
      ],
      "name": "ERC20InsufficientAllowance",
      "type": "error"
    },
    {
      "inputs": [
        {
          "internalType": "address",
          "name": "sender",
          "type": "address"
        },
        {
          "internalType": "uint256",
          "name": "balance",
          "type": "uint256"
        },
        {
          "internalType": "uint256",
          "name": "needed",
          "type": "uint256"
        }
      ],
      "name": "ERC20InsufficientBalance",
      "type": "error"
    },
    {
      "inputs": [
        {
          "internalType": "address",
          "name": "approver",
          "type": "address"
        }
      ],
      "name": "ERC20InvalidApprover",
      "type": "error"
    },
    {
      "inputs": [
        {
          "internalType": "address",
          "name": "receiver",
          "type": "address"
        }
      ],
      "name": "ERC20InvalidReceiver",
      "type": "error"
    },
    {
      "inputs": [
        {
          "internalType": "address",
          "name": "sender",
          "type": "address"
        }
      ],
      "name": "ERC20InvalidSender",
      "type": "error"
    },
    {
      "inputs": [
        {
          "internalType": "address",
          "name": "spender",
          "type": "address"
        }
      ],
      "name": "ERC20InvalidSpender",
      "type": "error"
    },
    {
      "inputs": [],
      "name": "InvalidInitialization",
      "type": "error"
    },
    {
      "inputs": [],
      "name": "NotInitializing",
      "type": "error"
    },
    {
      "anonymous": false,
      "inputs": [
        {
          "indexed": true,
          "internalType": "address",
          "name": "owner",
          "type": "address"
        },
        {
          "indexed": true,
          "internalType": "address",
          "name": "spender",
          "type": "address"
        },
        {
          "indexed": false,
          "internalType": "uint256",
          "name": "value",
          "type": "uint256"
        }
      ],
      "name": "Approval",
      "type": "event"
    },
    {
      "anonymous": false,
      "inputs": [
        {
          "indexed": false,
          "internalType": "uint64",
          "name": "version",
          "type": "uint64"
        }
      ],
      "name": "Initialized",
      "type": "event"
    },
    {
      "anonymous": false,
      "inputs": [
        {
          "indexed": true,
          "internalType": "address",
          "name": "from",
          "type": "address"
        },
        {
          "indexed": true,
          "internalType": "address",
          "name": "to",
          "type": "address"
        },
        {
          "indexed": false,
          "internalType": "uint256",
          "name": "value",
          "type": "uint256"
        }
      ],
      "name": "Transfer",
      "type": "event"
    },
    {
      "inputs": [
        {
          "internalType": "address",
          "name": "tokenContract",
          "type": "address"
        },
        {
          "internalType": "uint256",
          "name": "tokenId",
          "type": "uint256"
        }
      ],
      "name": "__ERC6551AccountUpgradeable_init",
      "outputs": [],
      "stateMutability": "nonpayable",
      "type": "function"
    },
    {
      "inputs": [],
      "name": "__RootChild_init",
      "outputs": [],
      "stateMutability": "nonpayable",
      "type": "function"
    },
    {
      "inputs": [
        {
          "internalType": "address",
          "name": "owner",
          "type": "address"
        },
        {
          "internalType": "address",
          "name": "spender",
          "type": "address"
        }
      ],
      "name": "allowance",
      "outputs": [
        {
          "internalType": "uint256",
          "name": "",
          "type": "uint256"
        }
      ],
      "stateMutability": "view",
      "type": "function"
    },
    {
      "inputs": [
        {
          "internalType": "address",
          "name": "spender",
          "type": "address"
        },
        {
          "internalType": "uint256",
          "name": "value",
          "type": "uint256"
        }
      ],
      "name": "approve",
      "outputs": [
        {
          "internalType": "bool",
          "name": "",
          "type": "bool"
        }
      ],
      "stateMutability": "nonpayable",
      "type": "function"
    },
    {
      "inputs": [
        {
          "internalType": "address",
          "name": "account",
          "type": "address"
        }
      ],
      "name": "balanceOf",
      "outputs": [
        {
          "internalType": "uint256",
          "name": "",
          "type": "uint256"
        }
      ],
      "stateMutability": "view",
      "type": "function"
    },
    {
      "inputs": [
        {
          "internalType": "uint256",
          "name": "value",
          "type": "uint256"
        }
      ],
      "name": "burn",
      "outputs": [],
      "stateMutability": "nonpayable",
      "type": "function"
    },
    {
      "inputs": [
        {
          "internalType": "address",
          "name": "account",
          "type": "address"
        },
        {
          "internalType": "uint256",
          "name": "value",
          "type": "uint256"
        }
      ],
      "name": "burnFrom",
      "outputs": [],
      "stateMutability": "nonpayable",
      "type": "function"
    },
    {
      "inputs": [],
      "name": "decimals",
      "outputs": [
        {
          "internalType": "uint8",
          "name": "",
          "type": "uint8"
        }
      ],
      "stateMutability": "view",
      "type": "function"
    },
    {
      "inputs": [
        {
          "internalType": "address",
          "name": "to",
          "type": "address"
        },
        {
          "internalType": "uint256",
          "name": "value",
          "type": "uint256"
        },
        {
          "internalType": "bytes",
          "name": "data",
          "type": "bytes"
        },
        {
          "internalType": "uint256",
          "name": "operation",
          "type": "uint256"
        }
      ],
      "name": "execute",
      "outputs": [
        {
          "internalType": "bytes",
          "name": "result",
          "type": "bytes"
        }
      ],
      "stateMutability": "payable",
      "type": "function"
    },
    {
      "inputs": [
        {
          "internalType": "string",
          "name": "_name",
          "type": "string"
        },
        {
          "internalType": "string",
          "name": "_symbol",
          "type": "string"
        }
      ],
      "name": "initSolRootChild",
      "outputs": [],
      "stateMutability": "nonpayable",
      "type": "function"
    },
    {
      "inputs": [
        {
          "internalType": "bytes32",
          "name": "hash",
          "type": "bytes32"
        },
        {
          "internalType": "bytes",
          "name": "signature",
          "type": "bytes"
        }
      ],
      "name": "isValidSignature",
      "outputs": [
        {
          "internalType": "bytes4",
          "name": "magicValue",
          "type": "bytes4"
        }
      ],
      "stateMutability": "view",
      "type": "function"
    },
    {
      "inputs": [
        {
          "internalType": "address",
          "name": "signer",
          "type": "address"
        },
        {
          "internalType": "bytes",
          "name": "",
          "type": "bytes"
        }
      ],
      "name": "isValidSigner",
      "outputs": [
        {
          "internalType": "bytes4",
          "name": "",
          "type": "bytes4"
        }
      ],
      "stateMutability": "view",
      "type": "function"
    },
    {
      "inputs": [
        {
          "internalType": "address",
          "name": "to",
          "type": "address"
        },
        {
          "internalType": "uint256",
          "name": "amount",
          "type": "uint256"
        }
      ],
      "name": "mint",
      "outputs": [],
      "stateMutability": "nonpayable",
      "type": "function"
    },
    {
      "inputs": [],
      "name": "name",
      "outputs": [
        {
          "internalType": "string",
          "name": "",
          "type": "string"
        }
      ],
      "stateMutability": "view",
      "type": "function"
    },
    {
      "inputs": [],
      "name": "owner",
      "outputs": [
        {
          "internalType": "address",
          "name": "",
          "type": "address"
        }
      ],
      "stateMutability": "view",
      "type": "function"
    },
    {
      "inputs": [],
      "name": "registry",
      "outputs": [
        {
          "internalType": "address",
          "name": "",
          "type": "address"
        }
      ],
      "stateMutability": "view",
      "type": "function"
    },
    {
      "inputs": [],
      "name": "state",
      "outputs": [
        {
          "internalType": "uint256",
          "name": "",
          "type": "uint256"
        }
      ],
      "stateMutability": "view",
      "type": "function"
    },
    {
      "inputs": [],
      "name": "symbol",
      "outputs": [
        {
          "internalType": "string",
          "name": "",
          "type": "string"
        }
      ],
      "stateMutability": "view",
      "type": "function"
    },
    {
      "inputs": [],
      "name": "token",
      "outputs": [
        {
          "internalType": "uint256",
          "name": "",
          "type": "uint256"
        },
        {
          "internalType": "address",
          "name": "",
          "type": "address"
        },
        {
          "internalType": "uint256",
          "name": "",
          "type": "uint256"
        }
      ],
      "stateMutability": "view",
      "type": "function"
    },
    {
      "inputs": [],
      "name": "totalSupply",
      "outputs": [
        {
          "internalType": "uint256",
          "name": "",
          "type": "uint256"
        }
      ],
      "stateMutability": "view",
      "type": "function"
    },
    {
      "inputs": [
        {
          "internalType": "address",
          "name": "to",
          "type": "address"
        },
        {
          "internalType": "uint256",
          "name": "value",
          "type": "uint256"
        }
      ],
      "name": "transfer",
      "outputs": [
        {
          "internalType": "bool",
          "name": "",
          "type": "bool"
        }
      ],
      "stateMutability": "nonpayable",
      "type": "function"
    },
    {
      "inputs": [
        {
          "internalType": "address",
          "name": "from",
          "type": "address"
        },
        {
          "internalType": "address",
          "name": "to",
          "type": "address"
        },
        {
          "internalType": "uint256",
          "name": "value",
          "type": "uint256"
        }
      ],
      "name": "transferFrom",
      "outputs": [
        {
          "internalType": "bool",
          "name": "",
          "type": "bool"
        }
      ],
      "stateMutability": "nonpayable",
      "type": "function"
    },
    {
      "stateMutability": "payable",
      "type": "receive"
    }
  ],
  "bytecode": "0x60806040523480156200001157600080fd5b5060405162003b3c38038062003b3c833981810160405281019062000037919062000939565b81816200004b82826200005560201b60201c565b5050505062000de7565b600062000067620001fe60201b60201c565b905060008160000160089054906101000a900460ff1615905060008260000160009054906101000a900467ffffffffffffffff1690506000808267ffffffffffffffff16148015620000b65750825b9050600060018367ffffffffffffffff16148015620000ec575060003073ffffffffffffffffffffffffffffffffffffffff163b145b905081158015620000fb575080155b1562000133576040517ff92ee8a900000000000000000000000000000000000000000000000000000000815260040160405180910390fd5b60018560000160006101000a81548167ffffffffffffffff021916908367ffffffffffffffff1602179055508315620001845760018560000160086101000a81548160ff0219169083151502179055505b6200019687876200022660201b60201c565b8315620001f55760008560000160086101000a81548160ff0219169083151502179055507fc7f505b2f371ae2175ee4913f4499e1f2633a7b5936321eed1cdaeb6115181d26001604051620001ec919062000a1f565b60405180910390a15b50505050505050565b60007ff0c57e16840df040f15088dc2f81fe391c3923bec73e23a9662efc9c229c6a00905090565b620002366200025c60201b60201c565b620002488282620002a560201b60201c565b62000258620002cb60201b60201c565b5050565b6200026c6200048860201b60201c565b620002a3576040517fd7e6bcf800000000000000000000000000000000000000000000000000000000815260040160405180910390fd5b565b620002b56200025c60201b60201c565b620002c78282620004b060201b60201c565b5050565b6000620002dd620001fe60201b60201c565b905060008160000160089054906101000a900460ff1615905060008260000160009054906101000a900467ffffffffffffffff1690506000808267ffffffffffffffff161480156200032c5750825b9050600060018367ffffffffffffffff1614801562000362575060003073ffffffffffffffffffffffffffffffffffffffff163b145b90508115801562000371575080155b15620003a9576040517ff92ee8a900000000000000000000000000000000000000000000000000000000815260040160405180910390fd5b60018560000160006101000a81548167ffffffffffffffff021916908367ffffffffffffffff1602179055508315620003fa5760018560000160086101000a81548160ff0219169083151502179055505b62000422333073ffffffffffffffffffffffffffffffffffffffff166200050160201b60201c565b8315620004815760008560000160086101000a81548160ff0219169083151502179055507fc7f505b2f371ae2175ee4913f4499e1f2633a7b5936321eed1cdaeb6115181d2600160405162000478919062000a1f565b60405180910390a15b5050505050565b60006200049a620001fe60201b60201c565b60000160089054906101000a900460ff16905090565b620004c06200025c60201b60201c565b6000620004d26200075660201b60201c565b905082816003019081620004e7919062000c7d565b5081816004019081620004fb919062000c7d565b50505050565b600062000513620001fe60201b60201c565b905060008160000160089054906101000a900460ff1615905060008260000160009054906101000a900467ffffffffffffffff1690506000808267ffffffffffffffff16148015620005625750825b9050600060018367ffffffffffffffff1614801562000598575060003073ffffffffffffffffffffffffffffffffffffffff163b145b905081158015620005a7575080155b15620005df576040517ff92ee8a900000000000000000000000000000000000000000000000000000000815260040160405180910390fd5b60018560000160006101000a81548167ffffffffffffffff021916908367ffffffffffffffff1602179055508315620006305760018560000160086101000a81548160ff0219169083151502179055505b6000620006426200077e60201b60201c565b905060008160000154146200068e576040517f08c379a0000000000000000000000000000000000000000000000000000000008152600401620006859062000dc5565b60405180910390fd5b60018160000181905550468160010181905550878160020160006101000a81548173ffffffffffffffffffffffffffffffffffffffff021916908373ffffffffffffffffffffffffffffffffffffffff1602179055508681600301819055505083156200074d5760008560000160086101000a81548160ff0219169083151502179055507fc7f505b2f371ae2175ee4913f4499e1f2633a7b5936321eed1cdaeb6115181d2600160405162000744919062000a1f565b60405180910390a15b50505050505050565b60007f52c63247e1f47db19d5ce0460030c497f067ca4cebf71ba98eeadabe20bace00905090565b60007fbf32e4e73673efc15527263dda18d04baa796f3c468b74dd9166946804686100905090565b6000604051905090565b600080fd5b600080fd5b600080fd5b600080fd5b6000601f19601f8301169050919050565b7f4e487b7100000000000000000000000000000000000000000000000000000000600052604160045260246000fd5b6200080f82620007c4565b810181811067ffffffffffffffff82111715620008315762000830620007d5565b5b80604052505050565b600062000846620007a6565b905062000854828262000804565b919050565b600067ffffffffffffffff821115620008775762000876620007d5565b5b6200088282620007c4565b9050602081019050919050565b60005b83811015620008af57808201518184015260208101905062000892565b60008484015250505050565b6000620008d2620008cc8462000859565b6200083a565b905082815260208101848484011115620008f157620008f0620007bf565b5b620008fe8482856200088f565b509392505050565b600082601f8301126200091e576200091d620007ba565b5b815162000930848260208601620008bb565b91505092915050565b60008060408385031215620009535762000952620007b0565b5b600083015167ffffffffffffffff811115620009745762000973620007b5565b5b620009828582860162000906565b925050602083015167ffffffffffffffff811115620009a657620009a5620007b5565b5b620009b48582860162000906565b9150509250929050565b6000819050919050565b600067ffffffffffffffff82169050919050565b6000819050919050565b600062000a0762000a01620009fb84620009be565b620009dc565b620009c8565b9050919050565b62000a1981620009e6565b82525050565b600060208201905062000a36600083018462000a0e565b92915050565b600081519050919050565b7f4e487b7100000000000000000000000000000000000000000000000000000000600052602260045260246000fd5b6000600282049050600182168062000a8f57607f821691505b60208210810362000aa55762000aa462000a47565b5b50919050565b60008190508160005260206000209050919050565b60006020601f8301049050919050565b600082821b905092915050565b60006008830262000b0f7fffffffffffffffffffffffffffffffffffffffffffffffffffffffffffffffff8262000ad0565b62000b1b868362000ad0565b95508019841693508086168417925050509392505050565b6000819050919050565b600062000b5e62000b5862000b528462000b33565b620009dc565b62000b33565b9050919050565b6000819050919050565b62000b7a8362000b3d565b62000b9262000b898262000b65565b84845462000add565b825550505050565b600090565b62000ba962000b9a565b62000bb681848462000b6f565b505050565b5b8181101562000bde5762000bd260008262000b9f565b60018101905062000bbc565b5050565b601f82111562000c2d5762000bf78162000aab565b62000c028462000ac0565b8101602085101562000c12578190505b62000c2a62000c218562000ac0565b83018262000bbb565b50505b505050565b600082821c905092915050565b600062000c526000198460080262000c32565b1980831691505092915050565b600062000c6d838362000c3f565b9150826002028217905092915050565b62000c888262000a3c565b67ffffffffffffffff81111562000ca45762000ca3620007d5565b5b62000cb0825462000a76565b62000cbd82828562000be2565b600060209050601f83116001811462000cf5576000841562000ce0578287015190505b62000cec858262000c5f565b86555062000d5c565b601f19841662000d058662000aab565b60005b8281101562000d2f5784890151825560018201915060208501945060208101905062000d08565b8683101562000d4f578489015162000d4b601f89168262000c3f565b8355505b6001600288020188555050505b505050505050565b600082825260208201905092915050565b7f537461746520697320616c726561647920736574000000000000000000000000600082015250565b600062000dad60148362000d64565b915062000dba8262000d75565b602082019050919050565b6000602082019050818103600083015262000de08162000d9e565b9050919050565b612d458062000df76000396000f3fe6080604052600436106101395760003560e01c806370a08231116100ab57806395d89b411161006f57806395d89b4114610438578063a9059cbb14610463578063c19d93fb146104a0578063cd64b75d146104cb578063dd62ed3e146104f4578063fc0c546a1461053157610140565b806370a082311461034c57806374420f4c1461038957806379cc6790146103b95780637b103999146103e25780638da5cb5b1461040d57610140565b806323b872dd116100fd57806323b872dd1461023e578063313ce5671461027b5780633c3475a6146102a657806340c10f19146102bd57806342966c68146102e6578063523e32601461030f57610140565b806306fdde0314610145578063095ea7b3146101705780631626ba7e146101ad57806318160ddd146101ea57806320756e0e1461021557610140565b3661014057005b600080fd5b34801561015157600080fd5b5061015a61055e565b6040516101679190611dab565b60405180910390f35b34801561017c57600080fd5b5061019760048036038101906101929190611e75565b6105ff565b6040516101a49190611ed0565b60405180910390f35b3480156101b957600080fd5b506101d460048036038101906101cf9190612056565b610622565b6040516101e191906120ed565b60405180910390f35b3480156101f657600080fd5b506101ff61065b565b60405161020c9190612117565b60405180910390f35b34801561022157600080fd5b5061023c600480360381019061023791906121d3565b610673565b005b34801561024a57600080fd5b506102656004803603810190610260919061224b565b610804565b6040516102729190611ed0565b60405180910390f35b34801561028757600080fd5b50610290610833565b60405161029d91906122ba565b60405180910390f35b3480156102b257600080fd5b506102bb61083c565b005b3480156102c957600080fd5b506102e460048036038101906102df9190611e75565b6109e1565b005b3480156102f257600080fd5b5061030d600480360381019061030891906122d5565b610aaf565b005b34801561031b57600080fd5b5061033660048036038101906103319190612362565b610ac3565b60405161034391906120ed565b60405180910390f35b34801561035857600080fd5b50610373600480360381019061036e91906123c2565b610af1565b6040516103809190612117565b60405180910390f35b6103a3600480360381019061039e91906123ef565b610b48565b6040516103b091906124cc565b60405180910390f35b3480156103c557600080fd5b506103e060048036038101906103db9190611e75565b610c7a565b005b3480156103ee57600080fd5b506103f7610c9a565b60405161040491906124fd565b60405180910390f35b34801561041957600080fd5b50610422610cd2565b60405161042f91906124fd565b60405180910390f35b34801561044457600080fd5b5061044d610d7c565b60405161045a9190611dab565b60405180910390f35b34801561046f57600080fd5b5061048a60048036038101906104859190611e75565b610e1d565b6040516104979190611ed0565b60405180910390f35b3480156104ac57600080fd5b506104b5610e40565b6040516104c29190612117565b60405180910390f35b3480156104d757600080fd5b506104f260048036038101906104ed9190611e75565b610e53565b005b34801561050057600080fd5b5061051b60048036038101906105169190612518565b61108d565b6040516105289190612117565b60405180910390f35b34801561053d57600080fd5b50610546611122565b60405161055593929190612558565b60405180910390f35b6060600061056a61116d565b905080600301805461057b906125be565b80601f01602080910402602001604051908101604052809291908181526020018280546105a7906125be565b80156105f45780601f106105c9576101008083540402835291602001916105f4565b820191906000526020600020905b8154815290600101906020018083116105d757829003601f168201915b505050505091505090565b60008061060a611195565b905061061781858561119d565b600191505092915050565b600080610637610630610cd2565b85856111af565b9050801561064f57631626ba7e60e01b915050610655565b60009150505b92915050565b60008061066661116d565b9050806002015491505090565b600061067d61123f565b905060008160000160089054906101000a900460ff1615905060008260000160009054906101000a900467ffffffffffffffff1690506000808267ffffffffffffffff161480156106cb5750825b9050600060018367ffffffffffffffff16148015610700575060003073ffffffffffffffffffffffffffffffffffffffff163b145b90508115801561070e575080155b15610745576040517ff92ee8a900000000000000000000000000000000000000000000000000000000815260040160405180910390fd5b60018560000160006101000a81548167ffffffffffffffff021916908367ffffffffffffffff16021790555083156107955760018560000160086101000a81548160ff0219169083151502179055505b61079f8787611267565b83156107fb5760008560000160086101000a81548160ff0219169083151502179055507fc7f505b2f371ae2175ee4913f4499e1f2633a7b5936321eed1cdaeb6115181d260016040516107f29190612648565b60405180910390a15b50505050505050565b60008061080f611195565b905061081c858285611285565b6108278585856112dc565b60019150509392505050565b60006012905090565b600061084661123f565b905060008160000160089054906101000a900460ff1615905060008260000160009054906101000a900467ffffffffffffffff1690506000808267ffffffffffffffff161480156108945750825b9050600060018367ffffffffffffffff161480156108c9575060003073ffffffffffffffffffffffffffffffffffffffff163b145b9050811580156108d7575080155b1561090e576040517ff92ee8a900000000000000000000000000000000000000000000000000000000815260040160405180910390fd5b60018560000160006101000a81548167ffffffffffffffff021916908367ffffffffffffffff160217905550831561095e5760018560000160086101000a81548160ff0219169083151502179055505b61097e333073ffffffffffffffffffffffffffffffffffffffff16610e53565b83156109da5760008560000160086101000a81548160ff0219169083151502179055507fc7f505b2f371ae2175ee4913f4499e1f2633a7b5936321eed1cdaeb6115181d260016040516109d19190612648565b60405180910390a15b5050505050565b6109e9610cd2565b73ffffffffffffffffffffffffffffffffffffffff16610a07611195565b73ffffffffffffffffffffffffffffffffffffffff161480610a625750610a2c610c9a565b73ffffffffffffffffffffffffffffffffffffffff16610a4a611195565b73ffffffffffffffffffffffffffffffffffffffff16145b610aa1576040517f08c379a0000000000000000000000000000000000000000000000000000000008152600401610a98906126af565b60405180910390fd5b610aab82826113d0565b5050565b610ac0610aba611195565b82611452565b50565b6000610ace846114d4565b15610ae25763523e326060e01b9050610aea565b600060e01b90505b9392505050565b600080610afc61116d565b90508060000160008473ffffffffffffffffffffffffffffffffffffffff1673ffffffffffffffffffffffffffffffffffffffff16815260200190815260200160002054915050919050565b6060610b53336114d4565b610b92576040517f08c379a0000000000000000000000000000000000000000000000000000000008152600401610b899061271b565b60405180910390fd5b60008214610bd5576040517f08c379a0000000000000000000000000000000000000000000000000000000008152600401610bcc906127ad565b60405180910390fd5b610bdd611513565b600001600081546001019190508190555060008673ffffffffffffffffffffffffffffffffffffffff16868686604051610c189291906127fd565b60006040518083038185875af1925050503d8060008114610c55576040519150601f19603f3d011682016040523d82523d6000602084013e610c5a565b606091505b50809350819250505080610c7057815160208301fd5b5095945050505050565b610c8c82610c86611195565b83611285565b610c968282611452565b5050565b600080610ca5611513565b90508060020160009054906101000a900473ffffffffffffffffffffffffffffffffffffffff1691505090565b600080600080610ce0611122565b925092509250468314610cf95760009350505050610d79565b8173ffffffffffffffffffffffffffffffffffffffff16636352211e826040518263ffffffff1660e01b8152600401610d329190612117565b602060405180830381865afa158015610d4f573d6000803e3d6000fd5b505050506040513d601f19601f82011682018060405250810190610d73919061282b565b93505050505b90565b60606000610d8861116d565b9050806004018054610d99906125be565b80601f0160208091040260200160405190810160405280929190818152602001828054610dc5906125be565b8015610e125780601f10610de757610100808354040283529160200191610e12565b820191906000526020600020905b815481529060010190602001808311610df557829003601f168201915b505050505091505090565b600080610e28611195565b9050610e358185856112dc565b600191505092915050565b6000610e4a611513565b60000154905090565b6000610e5d61123f565b905060008160000160089054906101000a900460ff1615905060008260000160009054906101000a900467ffffffffffffffff1690506000808267ffffffffffffffff16148015610eab5750825b9050600060018367ffffffffffffffff16148015610ee0575060003073ffffffffffffffffffffffffffffffffffffffff163b145b905081158015610eee575080155b15610f25576040517ff92ee8a900000000000000000000000000000000000000000000000000000000815260040160405180910390fd5b60018560000160006101000a81548167ffffffffffffffff021916908367ffffffffffffffff1602179055508315610f755760018560000160086101000a81548160ff0219169083151502179055505b6000610f7f611513565b90506000816000015414610fc8576040517f08c379a0000000000000000000000000000000000000000000000000000000008152600401610fbf906128a4565b60405180910390fd5b60018160000181905550468160010181905550878160020160006101000a81548173ffffffffffffffffffffffffffffffffffffffff021916908373ffffffffffffffffffffffffffffffffffffffff1602179055508681600301819055505083156110845760008560000160086101000a81548160ff0219169083151502179055507fc7f505b2f371ae2175ee4913f4499e1f2633a7b5936321eed1cdaeb6115181d2600160405161107b9190612648565b60405180910390a15b50505050505050565b60008061109861116d565b90508060010160008573ffffffffffffffffffffffffffffffffffffffff1673ffffffffffffffffffffffffffffffffffffffff16815260200190815260200160002060008473ffffffffffffffffffffffffffffffffffffffff1673ffffffffffffffffffffffffffffffffffffffff1681526020019081526020016000205491505092915050565b600080600080611130611513565b905080600101548160020160009054906101000a900473ffffffffffffffffffffffffffffffffffffffff16826003015493509350935050909192565b60007f52c63247e1f47db19d5ce0460030c497f067ca4cebf71ba98eeadabe20bace00905090565b600033905090565b6111aa838383600161153b565b505050565b60008060006111be8585611721565b5091509150600060038111156111d7576111d66128c4565b5b8160038111156111ea576111e96128c4565b5b14801561122257508573ffffffffffffffffffffffffffffffffffffffff168273ffffffffffffffffffffffffffffffffffffffff16145b80611234575061123386868661177d565b5b925050509392505050565b60007ff0c57e16840df040f15088dc2f81fe391c3923bec73e23a9662efc9c229c6a00905090565b61126f6118a1565b61127982826118e1565b61128161083c565b5050565b61128d610c9a565b73ffffffffffffffffffffffffffffffffffffffff166112ab611195565b73ffffffffffffffffffffffffffffffffffffffff16146112d6576112d18383836118f7565b6112d7565b5b505050565b600073ffffffffffffffffffffffffffffffffffffffff168373ffffffffffffffffffffffffffffffffffffffff160361134e5760006040517f96c6fd1e00000000000000000000000000000000000000000000000000000000815260040161134591906124fd565b60405180910390fd5b600073ffffffffffffffffffffffffffffffffffffffff168273ffffffffffffffffffffffffffffffffffffffff16036113c05760006040517fec442f050000000000000000000000000000000000000000000000000000000081526004016113b791906124fd565b60405180910390fd5b6113cb83838361198b565b505050565b600073ffffffffffffffffffffffffffffffffffffffff168273ffffffffffffffffffffffffffffffffffffffff16036114425760006040517fec442f0500000000000000000000000000000000000000000000000000000000815260040161143991906124fd565b60405180910390fd5b61144e6000838361198b565b5050565b600073ffffffffffffffffffffffffffffffffffffffff168273ffffffffffffffffffffffffffffffffffffffff16036114c45760006040517f96c6fd1e0000000000000000000000000000000000000000000000000000000081526004016114bb91906124fd565b60405180910390fd5b6114d08260008361198b565b5050565b60006114de610cd2565b73ffffffffffffffffffffffffffffffffffffffff168273ffffffffffffffffffffffffffffffffffffffff16149050919050565b60007fbf32e4e73673efc15527263dda18d04baa796f3c468b74dd9166946804686100905090565b600061154561116d565b9050600073ffffffffffffffffffffffffffffffffffffffff168573ffffffffffffffffffffffffffffffffffffffff16036115b95760006040517fe602df050000000000000000000000000000000000000000000000000000000081526004016115b091906124fd565b60405180910390fd5b600073ffffffffffffffffffffffffffffffffffffffff168473ffffffffffffffffffffffffffffffffffffffff160361162b5760006040517f94280d6200000000000000000000000000000000000000000000000000000000815260040161162291906124fd565b60405180910390fd5b828160010160008773ffffffffffffffffffffffffffffffffffffffff1673ffffffffffffffffffffffffffffffffffffffff16815260200190815260200160002060008673ffffffffffffffffffffffffffffffffffffffff1673ffffffffffffffffffffffffffffffffffffffff16815260200190815260200160002081905550811561171a578373ffffffffffffffffffffffffffffffffffffffff168573ffffffffffffffffffffffffffffffffffffffff167f8c5be1e5ebec7d5bd14f71427d1e84f3dd0314c0f7b2291e5b200ac8c7c3b925856040516117119190612117565b60405180910390a35b5050505050565b600080600060418451036117665760008060006020870151925060408701519150606087015160001a905061175888828585611bca565b955095509550505050611776565b60006002855160001b9250925092505b9250925092565b60008060008573ffffffffffffffffffffffffffffffffffffffff1685856040516024016117ac929190612902565b604051602081830303815290604052631626ba7e60e01b6020820180517bffffffffffffffffffffffffffffffffffffffffffffffffffffffff83818316178352505050506040516117fe9190612963565b600060405180830381855afa9150503d8060008114611839576040519150601f19603f3d011682016040523d82523d6000602084013e61183e565b606091505b509150915081801561185257506020815110155b80156118965750631626ba7e60e01b7bffffffffffffffffffffffffffffffffffffffffffffffffffffffff191681806020019051810190611894919061298f565b145b925050509392505050565b6118a9611cbe565b6118df576040517fd7e6bcf800000000000000000000000000000000000000000000000000000000815260040160405180910390fd5b565b6118e96118a1565b6118f38282611cde565b5050565b6000611903848461108d565b90507fffffffffffffffffffffffffffffffffffffffffffffffffffffffffffffffff81146119855781811015611975578281836040517ffb8f41b200000000000000000000000000000000000000000000000000000000815260040161196c939291906129bc565b60405180910390fd5b6119848484848403600061153b565b5b50505050565b600061199561116d565b9050600073ffffffffffffffffffffffffffffffffffffffff168473ffffffffffffffffffffffffffffffffffffffff16036119eb57818160020160008282546119df9190612a22565b92505081905550611ac4565b60008160000160008673ffffffffffffffffffffffffffffffffffffffff1673ffffffffffffffffffffffffffffffffffffffff16815260200190815260200160002054905082811015611a7a578481846040517fe450d38c000000000000000000000000000000000000000000000000000000008152600401611a71939291906129bc565b60405180910390fd5b8281038260000160008773ffffffffffffffffffffffffffffffffffffffff1673ffffffffffffffffffffffffffffffffffffffff16815260200190815260200160002081905550505b600073ffffffffffffffffffffffffffffffffffffffff168373ffffffffffffffffffffffffffffffffffffffff1603611b0f57818160020160008282540392505081905550611b5f565b818160000160008573ffffffffffffffffffffffffffffffffffffffff1673ffffffffffffffffffffffffffffffffffffffff168152602001908152602001600020600082825401925050819055505b8273ffffffffffffffffffffffffffffffffffffffff168473ffffffffffffffffffffffffffffffffffffffff167fddf252ad1be2c89b69c2b068fc378daa952ba7f163c4a11628f55a4df523b3ef84604051611bbc9190612117565b60405180910390a350505050565b60008060007f7fffffffffffffffffffffffffffffff5d576e7357a4501ddfe92f46681b20a08460001c1115611c0a576000600385925092509250611cb4565b600060018888888860405160008152602001604052604051611c2f9493929190612a56565b6020604051602081039080840390855afa158015611c51573d6000803e3d6000fd5b505050602060405103519050600073ffffffffffffffffffffffffffffffffffffffff168173ffffffffffffffffffffffffffffffffffffffff1603611ca557600060016000801b93509350935050611cb4565b8060008060001b935093509350505b9450945094915050565b6000611cc861123f565b60000160089054906101000a900460ff16905090565b611ce66118a1565b6000611cf061116d565b905082816003019081611d039190612c3d565b5081816004019081611d159190612c3d565b50505050565b600081519050919050565b600082825260208201905092915050565b60005b83811015611d55578082015181840152602081019050611d3a565b60008484015250505050565b6000601f19601f8301169050919050565b6000611d7d82611d1b565b611d878185611d26565b9350611d97818560208601611d37565b611da081611d61565b840191505092915050565b60006020820190508181036000830152611dc58184611d72565b905092915050565b6000604051905090565b600080fd5b600080fd5b600073ffffffffffffffffffffffffffffffffffffffff82169050919050565b6000611e0c82611de1565b9050919050565b611e1c81611e01565b8114611e2757600080fd5b50565b600081359050611e3981611e13565b92915050565b6000819050919050565b611e5281611e3f565b8114611e5d57600080fd5b50565b600081359050611e6f81611e49565b92915050565b60008060408385031215611e8c57611e8b611dd7565b5b6000611e9a85828601611e2a565b9250506020611eab85828601611e60565b9150509250929050565b60008115159050919050565b611eca81611eb5565b82525050565b6000602082019050611ee56000830184611ec1565b92915050565b6000819050919050565b611efe81611eeb565b8114611f0957600080fd5b50565b600081359050611f1b81611ef5565b92915050565b600080fd5b600080fd5b7f4e487b7100000000000000000000000000000000000000000000000000000000600052604160045260246000fd5b611f6382611d61565b810181811067ffffffffffffffff82111715611f8257611f81611f2b565b5b80604052505050565b6000611f95611dcd565b9050611fa18282611f5a565b919050565b600067ffffffffffffffff821115611fc157611fc0611f2b565b5b611fca82611d61565b9050602081019050919050565b82818337600083830152505050565b6000611ff9611ff484611fa6565b611f8b565b90508281526020810184848401111561201557612014611f26565b5b612020848285611fd7565b509392505050565b600082601f83011261203d5761203c611f21565b5b813561204d848260208601611fe6565b91505092915050565b6000806040838503121561206d5761206c611dd7565b5b600061207b85828601611f0c565b925050602083013567ffffffffffffffff81111561209c5761209b611ddc565b5b6120a885828601612028565b9150509250929050565b60007fffffffff0000000000000000000000000000000000000000000000000000000082169050919050565b6120e7816120b2565b82525050565b600060208201905061210260008301846120de565b92915050565b61211181611e3f565b82525050565b600060208201905061212c6000830184612108565b92915050565b600067ffffffffffffffff82111561214d5761214c611f2b565b5b61215682611d61565b9050602081019050919050565b600061217661217184612132565b611f8b565b90508281526020810184848401111561219257612191611f26565b5b61219d848285611fd7565b509392505050565b600082601f8301126121ba576121b9611f21565b5b81356121ca848260208601612163565b91505092915050565b600080604083850312156121ea576121e9611dd7565b5b600083013567ffffffffffffffff81111561220857612207611ddc565b5b612214858286016121a5565b925050602083013567ffffffffffffffff81111561223557612234611ddc565b5b612241858286016121a5565b9150509250929050565b60008060006060848603121561226457612263611dd7565b5b600061227286828701611e2a565b935050602061228386828701611e2a565b925050604061229486828701611e60565b9150509250925092565b600060ff82169050919050565b6122b48161229e565b82525050565b60006020820190506122cf60008301846122ab565b92915050565b6000602082840312156122eb576122ea611dd7565b5b60006122f984828501611e60565b91505092915050565b600080fd5b600080fd5b60008083601f84011261232257612321611f21565b5b8235905067ffffffffffffffff81111561233f5761233e612302565b5b60208301915083600182028301111561235b5761235a612307565b5b9250929050565b60008060006040848603121561237b5761237a611dd7565b5b600061238986828701611e2a565b935050602084013567ffffffffffffffff8111156123aa576123a9611ddc565b5b6123b68682870161230c565b92509250509250925092565b6000602082840312156123d8576123d7611dd7565b5b60006123e684828501611e2a565b91505092915050565b60008060008060006080868803121561240b5761240a611dd7565b5b600061241988828901611e2a565b955050602061242a88828901611e60565b945050604086013567ffffffffffffffff81111561244b5761244a611ddc565b5b6124578882890161230c565b9350935050606061246a88828901611e60565b9150509295509295909350565b600081519050919050565b600082825260208201905092915050565b600061249e82612477565b6124a88185612482565b93506124b8818560208601611d37565b6124c181611d61565b840191505092915050565b600060208201905081810360008301526124e68184612493565b905092915050565b6124f781611e01565b82525050565b600060208201905061251260008301846124ee565b92915050565b6000806040838503121561252f5761252e611dd7565b5b600061253d85828601611e2a565b925050602061254e85828601611e2a565b9150509250929050565b600060608201905061256d6000830186612108565b61257a60208301856124ee565b6125876040830184612108565b949350505050565b7f4e487b7100000000000000000000000000000000000000000000000000000000600052602260045260246000fd5b600060028204905060018216806125d657607f821691505b6020821081036125e9576125e861258f565b5b50919050565b6000819050919050565b600067ffffffffffffffff82169050919050565b6000819050919050565b600061263261262d612628846125ef565b61260d565b6125f9565b9050919050565b61264281612617565b82525050565b600060208201905061265d6000830184612639565b92915050565b7f4368696c64204552433131353500000000000000000000000000000000000000600082015250565b6000612699600d83611d26565b91506126a482612663565b602082019050919050565b600060208201905081810360008301526126c88161268c565b9050919050565b7f496e76616c6964207369676e6572000000000000000000000000000000000000600082015250565b6000612705600e83611d26565b9150612710826126cf565b602082019050919050565b60006020820190508181036000830152612734816126f8565b9050919050565b7f4f6e6c792063616c6c206f7065726174696f6e732061726520737570706f727460008201527f6564000000000000000000000000000000000000000000000000000000000000602082015250565b6000612797602283611d26565b91506127a28261273b565b604082019050919050565b600060208201905081810360008301526127c68161278a565b9050919050565b600081905092915050565b60006127e483856127cd565b93506127f1838584611fd7565b82840190509392505050565b600061280a8284866127d8565b91508190509392505050565b60008151905061282581611e13565b92915050565b60006020828403121561284157612840611dd7565b5b600061284f84828501612816565b91505092915050565b7f537461746520697320616c726561647920736574000000000000000000000000600082015250565b600061288e601483611d26565b915061289982612858565b602082019050919050565b600060208201905081810360008301526128bd81612881565b9050919050565b7f4e487b7100000000000000000000000000000000000000000000000000000000600052602160045260246000fd5b6128fc81611eeb565b82525050565b600060408201905061291760008301856128f3565b81810360208301526129298184612493565b90509392505050565b600061293d82612477565b61294781856127cd565b9350612957818560208601611d37565b80840191505092915050565b600061296f8284612932565b915081905092915050565b60008151905061298981611ef5565b92915050565b6000602082840312156129a5576129a4611dd7565b5b60006129b38482850161297a565b91505092915050565b60006060820190506129d160008301866124ee565b6129de6020830185612108565b6129eb6040830184612108565b949350505050565b7f4e487b7100000000000000000000000000000000000000000000000000000000600052601160045260246000fd5b6000612a2d82611e3f565b9150612a3883611e3f565b9250828201905080821115612a5057612a4f6129f3565b5b92915050565b6000608082019050612a6b60008301876128f3565b612a7860208301866122ab565b612a8560408301856128f3565b612a9260608301846128f3565b95945050505050565b60008190508160005260206000209050919050565b60006020601f8301049050919050565b600082821b905092915050565b600060088302612afd7fffffffffffffffffffffffffffffffffffffffffffffffffffffffffffffffff82612ac0565b612b078683612ac0565b95508019841693508086168417925050509392505050565b6000612b3a612b35612b3084611e3f565b61260d565b611e3f565b9050919050565b6000819050919050565b612b5483612b1f565b612b68612b6082612b41565b848454612acd565b825550505050565b600090565b612b7d612b70565b612b88818484612b4b565b505050565b5b81811015612bac57612ba1600082612b75565b600181019050612b8e565b5050565b601f821115612bf157612bc281612a9b565b612bcb84612ab0565b81016020851015612bda578190505b612bee612be685612ab0565b830182612b8d565b50505b505050565b600082821c905092915050565b6000612c1460001984600802612bf6565b1980831691505092915050565b6000612c2d8383612c03565b9150826002028217905092915050565b612c4682611d1b565b67ffffffffffffffff811115612c5f57612c5e611f2b565b5b612c6982546125be565b612c74828285612bb0565b600060209050601f831160018114612ca75760008415612c95578287015190505b612c9f8582612c21565b865550612d07565b601f198416612cb586612a9b565b60005b82811015612cdd57848901518255600182019150602085019450602081019050612cb8565b86831015612cfa5784890151612cf6601f891682612c03565b8355505b6001600288020188555050505b50505050505056fea2646970667358221220be759fcc8e88bc48aae62fa99f3ee09070c09db89d331e47bf26a47dd452588764736f6c63430008160033",
  "linkReferences": {},
  "deployedLinkReferences": {}
}