{
  "_format": "hh-sol-artifact-1",
  "contractName": "SolRootChildERC20",
  "sourceName": "contracts/solroot/SolRootChild.sol",
  "abi": [
    {
      "inputs": [
        {
          "internalType": "string",
          "name": "_name",
          "type": "string"
        },
        {
          "internalType": "string",
          "name": "_symbol",
          "type": "string"
        }
      ],
      "stateMutability": "nonpayable",
      "type": "constructor"
    },
    {
      "inputs": [
        {
          "internalType": "address",
          "name": "spender",
          "type": "address"
        },
        {
          "internalType": "uint256",
          "name": "allowance",
          "type": "uint256"
        },
        {
          "internalType": "uint256",
          "name": "needed",
          "type": "uint256"
        }
      ],
      "name": "ERC20InsufficientAllowance",
      "type": "error"
    },
    {
      "inputs": [
        {
          "internalType": "address",
          "name": "sender",
          "type": "address"
        },
        {
          "internalType": "uint256",
          "name": "balance",
          "type": "uint256"
        },
        {
          "internalType": "uint256",
          "name": "needed",
          "type": "uint256"
        }
      ],
      "name": "ERC20InsufficientBalance",
      "type": "error"
    },
    {
      "inputs": [
        {
          "internalType": "address",
          "name": "approver",
          "type": "address"
        }
      ],
      "name": "ERC20InvalidApprover",
      "type": "error"
    },
    {
      "inputs": [
        {
          "internalType": "address",
          "name": "receiver",
          "type": "address"
        }
      ],
      "name": "ERC20InvalidReceiver",
      "type": "error"
    },
    {
      "inputs": [
        {
          "internalType": "address",
          "name": "sender",
          "type": "address"
        }
      ],
      "name": "ERC20InvalidSender",
      "type": "error"
    },
    {
      "inputs": [
        {
          "internalType": "address",
          "name": "spender",
          "type": "address"
        }
      ],
      "name": "ERC20InvalidSpender",
      "type": "error"
    },
    {
      "inputs": [],
      "name": "InvalidInitialization",
      "type": "error"
    },
    {
      "inputs": [],
      "name": "NotInitializing",
      "type": "error"
    },
    {
      "anonymous": false,
      "inputs": [
        {
          "indexed": true,
          "internalType": "address",
          "name": "owner",
          "type": "address"
        },
        {
          "indexed": true,
          "internalType": "address",
          "name": "spender",
          "type": "address"
        },
        {
          "indexed": false,
          "internalType": "uint256",
          "name": "value",
          "type": "uint256"
        }
      ],
      "name": "Approval",
      "type": "event"
    },
    {
      "anonymous": false,
      "inputs": [
        {
          "indexed": false,
          "internalType": "uint64",
          "name": "version",
          "type": "uint64"
        }
      ],
      "name": "Initialized",
      "type": "event"
    },
    {
      "anonymous": false,
      "inputs": [
        {
          "indexed": true,
          "internalType": "address",
          "name": "from",
          "type": "address"
        },
        {
          "indexed": true,
          "internalType": "address",
          "name": "to",
          "type": "address"
        },
        {
          "indexed": false,
          "internalType": "uint256",
          "name": "value",
          "type": "uint256"
        }
      ],
      "name": "Transfer",
      "type": "event"
    },
    {
      "inputs": [
        {
          "internalType": "address",
          "name": "tokenContract",
          "type": "address"
        },
        {
          "internalType": "uint256",
          "name": "tokenId",
          "type": "uint256"
        }
      ],
      "name": "__ERC6551AccountUpgradeable_init",
      "outputs": [],
      "stateMutability": "nonpayable",
      "type": "function"
    },
    {
      "inputs": [],
      "name": "__RootChild_init",
      "outputs": [],
      "stateMutability": "nonpayable",
      "type": "function"
    },
    {
      "inputs": [
        {
          "internalType": "address",
          "name": "owner",
          "type": "address"
        },
        {
          "internalType": "address",
          "name": "spender",
          "type": "address"
        }
      ],
      "name": "allowance",
      "outputs": [
        {
          "internalType": "uint256",
          "name": "",
          "type": "uint256"
        }
      ],
      "stateMutability": "view",
      "type": "function"
    },
    {
      "inputs": [
        {
          "internalType": "address",
          "name": "spender",
          "type": "address"
        },
        {
          "internalType": "uint256",
          "name": "value",
          "type": "uint256"
        }
      ],
      "name": "approve",
      "outputs": [
        {
          "internalType": "bool",
          "name": "",
          "type": "bool"
        }
      ],
      "stateMutability": "nonpayable",
      "type": "function"
    },
    {
      "inputs": [
        {
          "internalType": "address",
          "name": "account",
          "type": "address"
        }
      ],
      "name": "balanceOf",
      "outputs": [
        {
          "internalType": "uint256",
          "name": "",
          "type": "uint256"
        }
      ],
      "stateMutability": "view",
      "type": "function"
    },
    {
      "inputs": [
        {
          "internalType": "uint256",
          "name": "value",
          "type": "uint256"
        }
      ],
      "name": "burn",
      "outputs": [],
      "stateMutability": "nonpayable",
      "type": "function"
    },
    {
      "inputs": [
        {
          "internalType": "address",
          "name": "account",
          "type": "address"
        },
        {
          "internalType": "uint256",
          "name": "value",
          "type": "uint256"
        }
      ],
      "name": "burnFrom",
      "outputs": [],
      "stateMutability": "nonpayable",
      "type": "function"
    },
    {
      "inputs": [],
      "name": "decimals",
      "outputs": [
        {
          "internalType": "uint8",
          "name": "",
          "type": "uint8"
        }
      ],
      "stateMutability": "view",
      "type": "function"
    },
    {
      "inputs": [
        {
          "internalType": "address",
          "name": "to",
          "type": "address"
        },
        {
          "internalType": "uint256",
          "name": "value",
          "type": "uint256"
        },
        {
          "internalType": "bytes",
          "name": "data",
          "type": "bytes"
        },
        {
          "internalType": "uint256",
          "name": "operation",
          "type": "uint256"
        }
      ],
      "name": "execute",
      "outputs": [
        {
          "internalType": "bytes",
          "name": "result",
          "type": "bytes"
        }
      ],
      "stateMutability": "payable",
      "type": "function"
    },
    {
      "inputs": [
        {
          "internalType": "string",
          "name": "_name",
          "type": "string"
        },
        {
          "internalType": "string",
          "name": "_symbol",
          "type": "string"
        }
      ],
      "name": "initSolRootChild",
      "outputs": [],
      "stateMutability": "nonpayable",
      "type": "function"
    },
    {
      "inputs": [
        {
          "internalType": "bytes32",
          "name": "hash",
          "type": "bytes32"
        },
        {
          "internalType": "bytes",
          "name": "signature",
          "type": "bytes"
        }
      ],
      "name": "isValidSignature",
      "outputs": [
        {
          "internalType": "bytes4",
          "name": "magicValue",
          "type": "bytes4"
        }
      ],
      "stateMutability": "view",
      "type": "function"
    },
    {
      "inputs": [
        {
          "internalType": "address",
          "name": "signer",
          "type": "address"
        },
        {
          "internalType": "bytes",
          "name": "",
          "type": "bytes"
        }
      ],
      "name": "isValidSigner",
      "outputs": [
        {
          "internalType": "bytes4",
          "name": "",
          "type": "bytes4"
        }
      ],
      "stateMutability": "view",
      "type": "function"
    },
    {
      "inputs": [
        {
          "internalType": "address",
          "name": "to",
          "type": "address"
        },
        {
          "internalType": "uint256",
          "name": "amount",
          "type": "uint256"
        }
      ],
      "name": "mint",
      "outputs": [],
      "stateMutability": "nonpayable",
      "type": "function"
    },
    {
      "inputs": [],
      "name": "name",
      "outputs": [
        {
          "internalType": "string",
          "name": "",
          "type": "string"
        }
      ],
      "stateMutability": "view",
      "type": "function"
    },
    {
      "inputs": [],
      "name": "owner",
      "outputs": [
        {
          "internalType": "address",
          "name": "",
          "type": "address"
        }
      ],
      "stateMutability": "view",
      "type": "function"
    },
    {
      "inputs": [],
      "name": "registry",
      "outputs": [
        {
          "internalType": "address",
          "name": "",
          "type": "address"
        }
      ],
      "stateMutability": "view",
      "type": "function"
    },
    {
      "inputs": [],
      "name": "state",
      "outputs": [
        {
          "internalType": "uint256",
          "name": "",
          "type": "uint256"
        }
      ],
      "stateMutability": "view",
      "type": "function"
    },
    {
      "inputs": [],
      "name": "symbol",
      "outputs": [
        {
          "internalType": "string",
          "name": "",
          "type": "string"
        }
      ],
      "stateMutability": "view",
      "type": "function"
    },
    {
      "inputs": [],
      "name": "token",
      "outputs": [
        {
          "internalType": "uint256",
          "name": "",
          "type": "uint256"
        },
        {
          "internalType": "address",
          "name": "",
          "type": "address"
        },
        {
          "internalType": "uint256",
          "name": "",
          "type": "uint256"
        }
      ],
      "stateMutability": "view",
      "type": "function"
    },
    {
      "inputs": [],
      "name": "totalSupply",
      "outputs": [
        {
          "internalType": "uint256",
          "name": "",
          "type": "uint256"
        }
      ],
      "stateMutability": "view",
      "type": "function"
    },
    {
      "inputs": [
        {
          "internalType": "address",
          "name": "to",
          "type": "address"
        },
        {
          "internalType": "uint256",
          "name": "value",
          "type": "uint256"
        }
      ],
      "name": "transfer",
      "outputs": [
        {
          "internalType": "bool",
          "name": "",
          "type": "bool"
        }
      ],
      "stateMutability": "nonpayable",
      "type": "function"
    },
    {
      "inputs": [
        {
          "internalType": "address",
          "name": "from",
          "type": "address"
        },
        {
          "internalType": "address",
          "name": "to",
          "type": "address"
        },
        {
          "internalType": "uint256",
          "name": "value",
          "type": "uint256"
        }
      ],
      "name": "transferFrom",
      "outputs": [
        {
          "internalType": "bool",
          "name": "",
          "type": "bool"
        }
      ],
      "stateMutability": "nonpayable",
      "type": "function"
    },
    {
      "stateMutability": "payable",
      "type": "receive"
    }
  ],
  "bytecode": "0x60806040523480156200001157600080fd5b5060405162003a9d38038062003a9d833981810160405281019062000037919062000935565b6200004982826200005160201b60201c565b505062000de3565b600062000063620001fa60201b60201c565b905060008160000160089054906101000a900460ff1615905060008260000160009054906101000a900467ffffffffffffffff1690506000808267ffffffffffffffff16148015620000b25750825b9050600060018367ffffffffffffffff16148015620000e8575060003073ffffffffffffffffffffffffffffffffffffffff163b145b905081158015620000f7575080155b156200012f576040517ff92ee8a900000000000000000000000000000000000000000000000000000000815260040160405180910390fd5b60018560000160006101000a81548167ffffffffffffffff021916908367ffffffffffffffff1602179055508315620001805760018560000160086101000a81548160ff0219169083151502179055505b6200019287876200022260201b60201c565b8315620001f15760008560000160086101000a81548160ff0219169083151502179055507fc7f505b2f371ae2175ee4913f4499e1f2633a7b5936321eed1cdaeb6115181d26001604051620001e8919062000a1b565b60405180910390a15b50505050505050565b60007ff0c57e16840df040f15088dc2f81fe391c3923bec73e23a9662efc9c229c6a00905090565b620002326200025860201b60201c565b620002448282620002a160201b60201c565b62000254620002c760201b60201c565b5050565b620002686200048460201b60201c565b6200029f576040517fd7e6bcf800000000000000000000000000000000000000000000000000000000815260040160405180910390fd5b565b620002b16200025860201b60201c565b620002c38282620004ac60201b60201c565b5050565b6000620002d9620001fa60201b60201c565b905060008160000160089054906101000a900460ff1615905060008260000160009054906101000a900467ffffffffffffffff1690506000808267ffffffffffffffff16148015620003285750825b9050600060018367ffffffffffffffff161480156200035e575060003073ffffffffffffffffffffffffffffffffffffffff163b145b9050811580156200036d575080155b15620003a5576040517ff92ee8a900000000000000000000000000000000000000000000000000000000815260040160405180910390fd5b60018560000160006101000a81548167ffffffffffffffff021916908367ffffffffffffffff1602179055508315620003f65760018560000160086101000a81548160ff0219169083151502179055505b6200041e333073ffffffffffffffffffffffffffffffffffffffff16620004fd60201b60201c565b83156200047d5760008560000160086101000a81548160ff0219169083151502179055507fc7f505b2f371ae2175ee4913f4499e1f2633a7b5936321eed1cdaeb6115181d2600160405162000474919062000a1b565b60405180910390a15b5050505050565b600062000496620001fa60201b60201c565b60000160089054906101000a900460ff16905090565b620004bc6200025860201b60201c565b6000620004ce6200075260201b60201c565b905082816003019081620004e3919062000c79565b5081816004019081620004f7919062000c79565b50505050565b60006200050f620001fa60201b60201c565b905060008160000160089054906101000a900460ff1615905060008260000160009054906101000a900467ffffffffffffffff1690506000808267ffffffffffffffff161480156200055e5750825b9050600060018367ffffffffffffffff1614801562000594575060003073ffffffffffffffffffffffffffffffffffffffff163b145b905081158015620005a3575080155b15620005db576040517ff92ee8a900000000000000000000000000000000000000000000000000000000815260040160405180910390fd5b60018560000160006101000a81548167ffffffffffffffff021916908367ffffffffffffffff16021790555083156200062c5760018560000160086101000a81548160ff0219169083151502179055505b60006200063e6200077a60201b60201c565b905060008160000154146200068a576040517f08c379a0000000000000000000000000000000000000000000000000000000008152600401620006819062000dc1565b60405180910390fd5b60018160000181905550468160010181905550878160020160006101000a81548173ffffffffffffffffffffffffffffffffffffffff021916908373ffffffffffffffffffffffffffffffffffffffff160217905550868160030181905550508315620007495760008560000160086101000a81548160ff0219169083151502179055507fc7f505b2f371ae2175ee4913f4499e1f2633a7b5936321eed1cdaeb6115181d2600160405162000740919062000a1b565b60405180910390a15b50505050505050565b60007f52c63247e1f47db19d5ce0460030c497f067ca4cebf71ba98eeadabe20bace00905090565b60007fbf32e4e73673efc15527263dda18d04baa796f3c468b74dd9166946804686100905090565b6000604051905090565b600080fd5b600080fd5b600080fd5b600080fd5b6000601f19601f8301169050919050565b7f4e487b7100000000000000000000000000000000000000000000000000000000600052604160045260246000fd5b6200080b82620007c0565b810181811067ffffffffffffffff821117156200082d576200082c620007d1565b5b80604052505050565b600062000842620007a2565b905062000850828262000800565b919050565b600067ffffffffffffffff821115620008735762000872620007d1565b5b6200087e82620007c0565b9050602081019050919050565b60005b83811015620008ab5780820151818401526020810190506200088e565b60008484015250505050565b6000620008ce620008c88462000855565b62000836565b905082815260208101848484011115620008ed57620008ec620007bb565b5b620008fa8482856200088b565b509392505050565b600082601f8301126200091a5762000919620007b6565b5b81516200092c848260208601620008b7565b91505092915050565b600080604083850312156200094f576200094e620007ac565b5b600083015167ffffffffffffffff81111562000970576200096f620007b1565b5b6200097e8582860162000902565b925050602083015167ffffffffffffffff811115620009a257620009a1620007b1565b5b620009b08582860162000902565b9150509250929050565b6000819050919050565b600067ffffffffffffffff82169050919050565b6000819050919050565b600062000a03620009fd620009f784620009ba565b620009d8565b620009c4565b9050919050565b62000a1581620009e2565b82525050565b600060208201905062000a32600083018462000a0a565b92915050565b600081519050919050565b7f4e487b7100000000000000000000000000000000000000000000000000000000600052602260045260246000fd5b6000600282049050600182168062000a8b57607f821691505b60208210810362000aa15762000aa062000a43565b5b50919050565b60008190508160005260206000209050919050565b60006020601f8301049050919050565b600082821b905092915050565b60006008830262000b0b7fffffffffffffffffffffffffffffffffffffffffffffffffffffffffffffffff8262000acc565b62000b17868362000acc565b95508019841693508086168417925050509392505050565b6000819050919050565b600062000b5a62000b5462000b4e8462000b2f565b620009d8565b62000b2f565b9050919050565b6000819050919050565b62000b768362000b39565b62000b8e62000b858262000b61565b84845462000ad9565b825550505050565b600090565b62000ba562000b96565b62000bb281848462000b6b565b505050565b5b8181101562000bda5762000bce60008262000b9b565b60018101905062000bb8565b5050565b601f82111562000c295762000bf38162000aa7565b62000bfe8462000abc565b8101602085101562000c0e578190505b62000c2662000c1d8562000abc565b83018262000bb7565b50505b505050565b600082821c905092915050565b600062000c4e6000198460080262000c2e565b1980831691505092915050565b600062000c69838362000c3b565b9150826002028217905092915050565b62000c848262000a38565b67ffffffffffffffff81111562000ca05762000c9f620007d1565b5b62000cac825462000a72565b62000cb982828562000bde565b600060209050601f83116001811462000cf1576000841562000cdc578287015190505b62000ce8858262000c5b565b86555062000d58565b601f19841662000d018662000aa7565b60005b8281101562000d2b5784890151825560018201915060208501945060208101905062000d04565b8683101562000d4b578489015162000d47601f89168262000c3b565b8355505b6001600288020188555050505b505050505050565b600082825260208201905092915050565b7f537461746520697320616c726561647920736574000000000000000000000000600082015250565b600062000da960148362000d60565b915062000db68262000d71565b602082019050919050565b6000602082019050818103600083015262000ddc8162000d9a565b9050919050565b612caa8062000df36000396000f3fe6080604052600436106101395760003560e01c806370a08231116100ab57806395d89b411161006f57806395d89b4114610438578063a9059cbb14610463578063c19d93fb146104a0578063cd64b75d146104cb578063dd62ed3e146104f4578063fc0c546a1461053157610140565b806370a082311461034c57806374420f4c1461038957806379cc6790146103b95780637b103999146103e25780638da5cb5b1461040d57610140565b806323b872dd116100fd57806323b872dd1461023e578063313ce5671461027b5780633c3475a6146102a657806340c10f19146102bd57806342966c68146102e6578063523e32601461030f57610140565b806306fdde0314610145578063095ea7b3146101705780631626ba7e146101ad57806318160ddd146101ea57806320756e0e1461021557610140565b3661014057005b600080fd5b34801561015157600080fd5b5061015a61055e565b6040516101679190611d10565b60405180910390f35b34801561017c57600080fd5b5061019760048036038101906101929190611dda565b6105ff565b6040516101a49190611e35565b60405180910390f35b3480156101b957600080fd5b506101d460048036038101906101cf9190611fbb565b610622565b6040516101e19190612052565b60405180910390f35b3480156101f657600080fd5b506101ff61065b565b60405161020c919061207c565b60405180910390f35b34801561022157600080fd5b5061023c60048036038101906102379190612138565b610673565b005b34801561024a57600080fd5b50610265600480360381019061026091906121b0565b610804565b6040516102729190611e35565b60405180910390f35b34801561028757600080fd5b50610290610833565b60405161029d919061221f565b60405180910390f35b3480156102b257600080fd5b506102bb61083c565b005b3480156102c957600080fd5b506102e460048036038101906102df9190611dda565b6109e1565b005b3480156102f257600080fd5b5061030d6004803603810190610308919061223a565b610a6b565b005b34801561031b57600080fd5b50610336600480360381019061033191906122c7565b610a7f565b6040516103439190612052565b60405180910390f35b34801561035857600080fd5b50610373600480360381019061036e9190612327565b610aad565b604051610380919061207c565b60405180910390f35b6103a3600480360381019061039e9190612354565b610b04565b6040516103b09190612431565b60405180910390f35b3480156103c557600080fd5b506103e060048036038101906103db9190611dda565b610c36565b005b3480156103ee57600080fd5b506103f7610c56565b6040516104049190612462565b60405180910390f35b34801561041957600080fd5b50610422610c8e565b60405161042f9190612462565b60405180910390f35b34801561044457600080fd5b5061044d610d38565b60405161045a9190611d10565b60405180910390f35b34801561046f57600080fd5b5061048a60048036038101906104859190611dda565b610dd9565b6040516104979190611e35565b60405180910390f35b3480156104ac57600080fd5b506104b5610dfc565b6040516104c2919061207c565b60405180910390f35b3480156104d757600080fd5b506104f260048036038101906104ed9190611dda565b610e0f565b005b34801561050057600080fd5b5061051b6004803603810190610516919061247d565b611049565b604051610528919061207c565b60405180910390f35b34801561053d57600080fd5b506105466110de565b604051610555939291906124bd565b60405180910390f35b6060600061056a611129565b905080600301805461057b90612523565b80601f01602080910402602001604051908101604052809291908181526020018280546105a790612523565b80156105f45780601f106105c9576101008083540402835291602001916105f4565b820191906000526020600020905b8154815290600101906020018083116105d757829003601f168201915b505050505091505090565b60008061060a611151565b9050610617818585611159565b600191505092915050565b600080610637610630610c8e565b858561116b565b9050801561064f57631626ba7e60e01b915050610655565b60009150505b92915050565b600080610666611129565b9050806002015491505090565b600061067d6111fb565b905060008160000160089054906101000a900460ff1615905060008260000160009054906101000a900467ffffffffffffffff1690506000808267ffffffffffffffff161480156106cb5750825b9050600060018367ffffffffffffffff16148015610700575060003073ffffffffffffffffffffffffffffffffffffffff163b145b90508115801561070e575080155b15610745576040517ff92ee8a900000000000000000000000000000000000000000000000000000000815260040160405180910390fd5b60018560000160006101000a81548167ffffffffffffffff021916908367ffffffffffffffff16021790555083156107955760018560000160086101000a81548160ff0219169083151502179055505b61079f8787611223565b83156107fb5760008560000160086101000a81548160ff0219169083151502179055507fc7f505b2f371ae2175ee4913f4499e1f2633a7b5936321eed1cdaeb6115181d260016040516107f291906125ad565b60405180910390a15b50505050505050565b60008061080f611151565b905061081c858285611241565b6108278585856112d5565b60019150509392505050565b60006012905090565b60006108466111fb565b905060008160000160089054906101000a900460ff1615905060008260000160009054906101000a900467ffffffffffffffff1690506000808267ffffffffffffffff161480156108945750825b9050600060018367ffffffffffffffff161480156108c9575060003073ffffffffffffffffffffffffffffffffffffffff163b145b9050811580156108d7575080155b1561090e576040517ff92ee8a900000000000000000000000000000000000000000000000000000000815260040160405180910390fd5b60018560000160006101000a81548167ffffffffffffffff021916908367ffffffffffffffff160217905550831561095e5760018560000160086101000a81548160ff0219169083151502179055505b61097e333073ffffffffffffffffffffffffffffffffffffffff16610e0f565b83156109da5760008560000160086101000a81548160ff0219169083151502179055507fc7f505b2f371ae2175ee4913f4499e1f2633a7b5936321eed1cdaeb6115181d260016040516109d191906125ad565b60405180910390a15b5050505050565b6109e9610c8e565b73ffffffffffffffffffffffffffffffffffffffff16610a07611151565b73ffffffffffffffffffffffffffffffffffffffff1614610a5d576040517f08c379a0000000000000000000000000000000000000000000000000000000008152600401610a5490612614565b60405180910390fd5b610a6782826113c9565b5050565b610a7c610a76611151565b8261144b565b50565b6000610a8a846114cd565b15610a9e5763523e326060e01b9050610aa6565b600060e01b90505b9392505050565b600080610ab8611129565b90508060000160008473ffffffffffffffffffffffffffffffffffffffff1673ffffffffffffffffffffffffffffffffffffffff16815260200190815260200160002054915050919050565b6060610b0f336114cd565b610b4e576040517f08c379a0000000000000000000000000000000000000000000000000000000008152600401610b4590612680565b60405180910390fd5b60008214610b91576040517f08c379a0000000000000000000000000000000000000000000000000000000008152600401610b8890612712565b60405180910390fd5b610b9961150c565b600001600081546001019190508190555060008673ffffffffffffffffffffffffffffffffffffffff16868686604051610bd4929190612762565b60006040518083038185875af1925050503d8060008114610c11576040519150601f19603f3d011682016040523d82523d6000602084013e610c16565b606091505b50809350819250505080610c2c57815160208301fd5b5095945050505050565b610c4882610c42611151565b83611241565b610c52828261144b565b5050565b600080610c6161150c565b90508060020160009054906101000a900473ffffffffffffffffffffffffffffffffffffffff1691505090565b600080600080610c9c6110de565b925092509250468314610cb55760009350505050610d35565b8173ffffffffffffffffffffffffffffffffffffffff16636352211e826040518263ffffffff1660e01b8152600401610cee919061207c565b602060405180830381865afa158015610d0b573d6000803e3d6000fd5b505050506040513d601f19601f82011682018060405250810190610d2f9190612790565b93505050505b90565b60606000610d44611129565b9050806004018054610d5590612523565b80601f0160208091040260200160405190810160405280929190818152602001828054610d8190612523565b8015610dce5780601f10610da357610100808354040283529160200191610dce565b820191906000526020600020905b815481529060010190602001808311610db157829003601f168201915b505050505091505090565b600080610de4611151565b9050610df18185856112d5565b600191505092915050565b6000610e0661150c565b60000154905090565b6000610e196111fb565b905060008160000160089054906101000a900460ff1615905060008260000160009054906101000a900467ffffffffffffffff1690506000808267ffffffffffffffff16148015610e675750825b9050600060018367ffffffffffffffff16148015610e9c575060003073ffffffffffffffffffffffffffffffffffffffff163b145b905081158015610eaa575080155b15610ee1576040517ff92ee8a900000000000000000000000000000000000000000000000000000000815260040160405180910390fd5b60018560000160006101000a81548167ffffffffffffffff021916908367ffffffffffffffff1602179055508315610f315760018560000160086101000a81548160ff0219169083151502179055505b6000610f3b61150c565b90506000816000015414610f84576040517f08c379a0000000000000000000000000000000000000000000000000000000008152600401610f7b90612809565b60405180910390fd5b60018160000181905550468160010181905550878160020160006101000a81548173ffffffffffffffffffffffffffffffffffffffff021916908373ffffffffffffffffffffffffffffffffffffffff1602179055508681600301819055505083156110405760008560000160086101000a81548160ff0219169083151502179055507fc7f505b2f371ae2175ee4913f4499e1f2633a7b5936321eed1cdaeb6115181d2600160405161103791906125ad565b60405180910390a15b50505050505050565b600080611054611129565b90508060010160008573ffffffffffffffffffffffffffffffffffffffff1673ffffffffffffffffffffffffffffffffffffffff16815260200190815260200160002060008473ffffffffffffffffffffffffffffffffffffffff1673ffffffffffffffffffffffffffffffffffffffff1681526020019081526020016000205491505092915050565b6000806000806110ec61150c565b905080600101548160020160009054906101000a900473ffffffffffffffffffffffffffffffffffffffff16826003015493509350935050909192565b60007f52c63247e1f47db19d5ce0460030c497f067ca4cebf71ba98eeadabe20bace00905090565b600033905090565b6111668383836001611534565b505050565b600080600061117a858561171a565b50915091506000600381111561119357611192612829565b5b8160038111156111a6576111a5612829565b5b1480156111de57508573ffffffffffffffffffffffffffffffffffffffff168273ffffffffffffffffffffffffffffffffffffffff16145b806111f057506111ef868686611776565b5b925050509392505050565b60007ff0c57e16840df040f15088dc2f81fe391c3923bec73e23a9662efc9c229c6a00905090565b61122b61189a565b61123582826118da565b61123d61083c565b5050565b600061124d8484611049565b90507fffffffffffffffffffffffffffffffffffffffffffffffffffffffffffffffff81146112cf57818110156112bf578281836040517ffb8f41b20000000000000000000000000000000000000000000000000000000081526004016112b693929190612858565b60405180910390fd5b6112ce84848484036000611534565b5b50505050565b600073ffffffffffffffffffffffffffffffffffffffff168373ffffffffffffffffffffffffffffffffffffffff16036113475760006040517f96c6fd1e00000000000000000000000000000000000000000000000000000000815260040161133e9190612462565b60405180910390fd5b600073ffffffffffffffffffffffffffffffffffffffff168273ffffffffffffffffffffffffffffffffffffffff16036113b95760006040517fec442f050000000000000000000000000000000000000000000000000000000081526004016113b09190612462565b60405180910390fd5b6113c48383836118f0565b505050565b600073ffffffffffffffffffffffffffffffffffffffff168273ffffffffffffffffffffffffffffffffffffffff160361143b5760006040517fec442f050000000000000000000000000000000000000000000000000000000081526004016114329190612462565b60405180910390fd5b611447600083836118f0565b5050565b600073ffffffffffffffffffffffffffffffffffffffff168273ffffffffffffffffffffffffffffffffffffffff16036114bd5760006040517f96c6fd1e0000000000000000000000000000000000000000000000000000000081526004016114b49190612462565b60405180910390fd5b6114c9826000836118f0565b5050565b60006114d7610c8e565b73ffffffffffffffffffffffffffffffffffffffff168273ffffffffffffffffffffffffffffffffffffffff16149050919050565b60007fbf32e4e73673efc15527263dda18d04baa796f3c468b74dd9166946804686100905090565b600061153e611129565b9050600073ffffffffffffffffffffffffffffffffffffffff168573ffffffffffffffffffffffffffffffffffffffff16036115b25760006040517fe602df050000000000000000000000000000000000000000000000000000000081526004016115a99190612462565b60405180910390fd5b600073ffffffffffffffffffffffffffffffffffffffff168473ffffffffffffffffffffffffffffffffffffffff16036116245760006040517f94280d6200000000000000000000000000000000000000000000000000000000815260040161161b9190612462565b60405180910390fd5b828160010160008773ffffffffffffffffffffffffffffffffffffffff1673ffffffffffffffffffffffffffffffffffffffff16815260200190815260200160002060008673ffffffffffffffffffffffffffffffffffffffff1673ffffffffffffffffffffffffffffffffffffffff168152602001908152602001600020819055508115611713578373ffffffffffffffffffffffffffffffffffffffff168573ffffffffffffffffffffffffffffffffffffffff167f8c5be1e5ebec7d5bd14f71427d1e84f3dd0314c0f7b2291e5b200ac8c7c3b9258560405161170a919061207c565b60405180910390a35b5050505050565b6000806000604184510361175f5760008060006020870151925060408701519150606087015160001a905061175188828585611b2f565b95509550955050505061176f565b60006002855160001b9250925092505b9250925092565b60008060008573ffffffffffffffffffffffffffffffffffffffff1685856040516024016117a592919061289e565b604051602081830303815290604052631626ba7e60e01b6020820180517bffffffffffffffffffffffffffffffffffffffffffffffffffffffff83818316178352505050506040516117f791906128ff565b600060405180830381855afa9150503d8060008114611832576040519150601f19603f3d011682016040523d82523d6000602084013e611837565b606091505b509150915081801561184b57506020815110155b801561188f5750631626ba7e60e01b7bffffffffffffffffffffffffffffffffffffffffffffffffffffffff19168180602001905181019061188d919061292b565b145b925050509392505050565b6118a2611c23565b6118d8576040517fd7e6bcf800000000000000000000000000000000000000000000000000000000815260040160405180910390fd5b565b6118e261189a565b6118ec8282611c43565b5050565b60006118fa611129565b9050600073ffffffffffffffffffffffffffffffffffffffff168473ffffffffffffffffffffffffffffffffffffffff160361195057818160020160008282546119449190612987565b92505081905550611a29565b60008160000160008673ffffffffffffffffffffffffffffffffffffffff1673ffffffffffffffffffffffffffffffffffffffff168152602001908152602001600020549050828110156119df578481846040517fe450d38c0000000000000000000000000000000000000000000000000000000081526004016119d693929190612858565b60405180910390fd5b8281038260000160008773ffffffffffffffffffffffffffffffffffffffff1673ffffffffffffffffffffffffffffffffffffffff16815260200190815260200160002081905550505b600073ffffffffffffffffffffffffffffffffffffffff168373ffffffffffffffffffffffffffffffffffffffff1603611a7457818160020160008282540392505081905550611ac4565b818160000160008573ffffffffffffffffffffffffffffffffffffffff1673ffffffffffffffffffffffffffffffffffffffff168152602001908152602001600020600082825401925050819055505b8273ffffffffffffffffffffffffffffffffffffffff168473ffffffffffffffffffffffffffffffffffffffff167fddf252ad1be2c89b69c2b068fc378daa952ba7f163c4a11628f55a4df523b3ef84604051611b21919061207c565b60405180910390a350505050565b60008060007f7fffffffffffffffffffffffffffffff5d576e7357a4501ddfe92f46681b20a08460001c1115611b6f576000600385925092509250611c19565b600060018888888860405160008152602001604052604051611b9494939291906129bb565b6020604051602081039080840390855afa158015611bb6573d6000803e3d6000fd5b505050602060405103519050600073ffffffffffffffffffffffffffffffffffffffff168173ffffffffffffffffffffffffffffffffffffffff1603611c0a57600060016000801b93509350935050611c19565b8060008060001b935093509350505b9450945094915050565b6000611c2d6111fb565b60000160089054906101000a900460ff16905090565b611c4b61189a565b6000611c55611129565b905082816003019081611c689190612ba2565b5081816004019081611c7a9190612ba2565b50505050565b600081519050919050565b600082825260208201905092915050565b60005b83811015611cba578082015181840152602081019050611c9f565b60008484015250505050565b6000601f19601f8301169050919050565b6000611ce282611c80565b611cec8185611c8b565b9350611cfc818560208601611c9c565b611d0581611cc6565b840191505092915050565b60006020820190508181036000830152611d2a8184611cd7565b905092915050565b6000604051905090565b600080fd5b600080fd5b600073ffffffffffffffffffffffffffffffffffffffff82169050919050565b6000611d7182611d46565b9050919050565b611d8181611d66565b8114611d8c57600080fd5b50565b600081359050611d9e81611d78565b92915050565b6000819050919050565b611db781611da4565b8114611dc257600080fd5b50565b600081359050611dd481611dae565b92915050565b60008060408385031215611df157611df0611d3c565b5b6000611dff85828601611d8f565b9250506020611e1085828601611dc5565b9150509250929050565b60008115159050919050565b611e2f81611e1a565b82525050565b6000602082019050611e4a6000830184611e26565b92915050565b6000819050919050565b611e6381611e50565b8114611e6e57600080fd5b50565b600081359050611e8081611e5a565b92915050565b600080fd5b600080fd5b7f4e487b7100000000000000000000000000000000000000000000000000000000600052604160045260246000fd5b611ec882611cc6565b810181811067ffffffffffffffff82111715611ee757611ee6611e90565b5b80604052505050565b6000611efa611d32565b9050611f068282611ebf565b919050565b600067ffffffffffffffff821115611f2657611f25611e90565b5b611f2f82611cc6565b9050602081019050919050565b82818337600083830152505050565b6000611f5e611f5984611f0b565b611ef0565b905082815260208101848484011115611f7a57611f79611e8b565b5b611f85848285611f3c565b509392505050565b600082601f830112611fa257611fa1611e86565b5b8135611fb2848260208601611f4b565b91505092915050565b60008060408385031215611fd257611fd1611d3c565b5b6000611fe085828601611e71565b925050602083013567ffffffffffffffff81111561200157612000611d41565b5b61200d85828601611f8d565b9150509250929050565b60007fffffffff0000000000000000000000000000000000000000000000000000000082169050919050565b61204c81612017565b82525050565b60006020820190506120676000830184612043565b92915050565b61207681611da4565b82525050565b6000602082019050612091600083018461206d565b92915050565b600067ffffffffffffffff8211156120b2576120b1611e90565b5b6120bb82611cc6565b9050602081019050919050565b60006120db6120d684612097565b611ef0565b9050828152602081018484840111156120f7576120f6611e8b565b5b612102848285611f3c565b509392505050565b600082601f83011261211f5761211e611e86565b5b813561212f8482602086016120c8565b91505092915050565b6000806040838503121561214f5761214e611d3c565b5b600083013567ffffffffffffffff81111561216d5761216c611d41565b5b6121798582860161210a565b925050602083013567ffffffffffffffff81111561219a57612199611d41565b5b6121a68582860161210a565b9150509250929050565b6000806000606084860312156121c9576121c8611d3c565b5b60006121d786828701611d8f565b93505060206121e886828701611d8f565b92505060406121f986828701611dc5565b9150509250925092565b600060ff82169050919050565b61221981612203565b82525050565b60006020820190506122346000830184612210565b92915050565b6000602082840312156122505761224f611d3c565b5b600061225e84828501611dc5565b91505092915050565b600080fd5b600080fd5b60008083601f84011261228757612286611e86565b5b8235905067ffffffffffffffff8111156122a4576122a3612267565b5b6020830191508360018202830111156122c0576122bf61226c565b5b9250929050565b6000806000604084860312156122e0576122df611d3c565b5b60006122ee86828701611d8f565b935050602084013567ffffffffffffffff81111561230f5761230e611d41565b5b61231b86828701612271565b92509250509250925092565b60006020828403121561233d5761233c611d3c565b5b600061234b84828501611d8f565b91505092915050565b6000806000806000608086880312156123705761236f611d3c565b5b600061237e88828901611d8f565b955050602061238f88828901611dc5565b945050604086013567ffffffffffffffff8111156123b0576123af611d41565b5b6123bc88828901612271565b935093505060606123cf88828901611dc5565b9150509295509295909350565b600081519050919050565b600082825260208201905092915050565b6000612403826123dc565b61240d81856123e7565b935061241d818560208601611c9c565b61242681611cc6565b840191505092915050565b6000602082019050818103600083015261244b81846123f8565b905092915050565b61245c81611d66565b82525050565b60006020820190506124776000830184612453565b92915050565b6000806040838503121561249457612493611d3c565b5b60006124a285828601611d8f565b92505060206124b385828601611d8f565b9150509250929050565b60006060820190506124d2600083018661206d565b6124df6020830185612453565b6124ec604083018461206d565b949350505050565b7f4e487b7100000000000000000000000000000000000000000000000000000000600052602260045260246000fd5b6000600282049050600182168061253b57607f821691505b60208210810361254e5761254d6124f4565b5b50919050565b6000819050919050565b600067ffffffffffffffff82169050919050565b6000819050919050565b600061259761259261258d84612554565b612572565b61255e565b9050919050565b6125a78161257c565b82525050565b60006020820190506125c2600083018461259e565b92915050565b7f6f6e6c79204f776e657200000000000000000000000000000000000000000000600082015250565b60006125fe600a83611c8b565b9150612609826125c8565b602082019050919050565b6000602082019050818103600083015261262d816125f1565b9050919050565b7f496e76616c6964207369676e6572000000000000000000000000000000000000600082015250565b600061266a600e83611c8b565b915061267582612634565b602082019050919050565b600060208201905081810360008301526126998161265d565b9050919050565b7f4f6e6c792063616c6c206f7065726174696f6e732061726520737570706f727460008201527f6564000000000000000000000000000000000000000000000000000000000000602082015250565b60006126fc602283611c8b565b9150612707826126a0565b604082019050919050565b6000602082019050818103600083015261272b816126ef565b9050919050565b600081905092915050565b60006127498385612732565b9350612756838584611f3c565b82840190509392505050565b600061276f82848661273d565b91508190509392505050565b60008151905061278a81611d78565b92915050565b6000602082840312156127a6576127a5611d3c565b5b60006127b48482850161277b565b91505092915050565b7f537461746520697320616c726561647920736574000000000000000000000000600082015250565b60006127f3601483611c8b565b91506127fe826127bd565b602082019050919050565b60006020820190508181036000830152612822816127e6565b9050919050565b7f4e487b7100000000000000000000000000000000000000000000000000000000600052602160045260246000fd5b600060608201905061286d6000830186612453565b61287a602083018561206d565b612887604083018461206d565b949350505050565b61289881611e50565b82525050565b60006040820190506128b3600083018561288f565b81810360208301526128c581846123f8565b90509392505050565b60006128d9826123dc565b6128e38185612732565b93506128f3818560208601611c9c565b80840191505092915050565b600061290b82846128ce565b915081905092915050565b60008151905061292581611e5a565b92915050565b60006020828403121561294157612940611d3c565b5b600061294f84828501612916565b91505092915050565b7f4e487b7100000000000000000000000000000000000000000000000000000000600052601160045260246000fd5b600061299282611da4565b915061299d83611da4565b92508282019050808211156129b5576129b4612958565b5b92915050565b60006080820190506129d0600083018761288f565b6129dd6020830186612210565b6129ea604083018561288f565b6129f7606083018461288f565b95945050505050565b60008190508160005260206000209050919050565b60006020601f8301049050919050565b600082821b905092915050565b600060088302612a627fffffffffffffffffffffffffffffffffffffffffffffffffffffffffffffffff82612a25565b612a6c8683612a25565b95508019841693508086168417925050509392505050565b6000612a9f612a9a612a9584611da4565b612572565b611da4565b9050919050565b6000819050919050565b612ab983612a84565b612acd612ac582612aa6565b848454612a32565b825550505050565b600090565b612ae2612ad5565b612aed818484612ab0565b505050565b5b81811015612b1157612b06600082612ada565b600181019050612af3565b5050565b601f821115612b5657612b2781612a00565b612b3084612a15565b81016020851015612b3f578190505b612b53612b4b85612a15565b830182612af2565b50505b505050565b600082821c905092915050565b6000612b7960001984600802612b5b565b1980831691505092915050565b6000612b928383612b68565b9150826002028217905092915050565b612bab82611c80565b67ffffffffffffffff811115612bc457612bc3611e90565b5b612bce8254612523565b612bd9828285612b15565b600060209050601f831160018114612c0c5760008415612bfa578287015190505b612c048582612b86565b865550612c6c565b601f198416612c1a86612a00565b60005b82811015612c4257848901518255600182019150602085019450602081019050612c1d565b86831015612c5f5784890151612c5b601f891682612b68565b8355505b6001600288020188555050505b50505050505056fea264697066735822122006e6a277ea4d7a35f5a58afe8d675a03b858865586d5baaca93cff51f435946b64736f6c63430008160033",
  "linkReferences": {},
  "deployedLinkReferences": {}
}