{
  "_format": "hh-sol-artifact-1",
  "contractName": "SolRootParent",
  "sourceName": "contracts/solroot/SolRootParent.sol",
  "abi": [
    {
      "inputs": [
        {
          "internalType": "address",
          "name": "owner",
          "type": "address"
        },
        {
          "internalType": "string",
          "name": "name",
          "type": "string"
        },
        {
          "internalType": "string",
          "name": "symbol",
          "type": "string"
        },
        {
          "internalType": "address",
          "name": "implementation",
          "type": "address"
        }
      ],
      "stateMutability": "nonpayable",
      "type": "constructor"
    },
    {
      "inputs": [
        {
          "internalType": "address",
          "name": "implementation",
          "type": "address"
        }
      ],
      "name": "BeaconInvalidImplementation",
      "type": "error"
    },
    {
      "inputs": [],
      "name": "ERC721EnumerableForbiddenBatchMint",
      "type": "error"
    },
    {
      "inputs": [
        {
          "internalType": "address",
          "name": "sender",
          "type": "address"
        },
        {
          "internalType": "uint256",
          "name": "tokenId",
          "type": "uint256"
        },
        {
          "internalType": "address",
          "name": "owner",
          "type": "address"
        }
      ],
      "name": "ERC721IncorrectOwner",
      "type": "error"
    },
    {
      "inputs": [
        {
          "internalType": "address",
          "name": "operator",
          "type": "address"
        },
        {
          "internalType": "uint256",
          "name": "tokenId",
          "type": "uint256"
        }
      ],
      "name": "ERC721InsufficientApproval",
      "type": "error"
    },
    {
      "inputs": [
        {
          "internalType": "address",
          "name": "approver",
          "type": "address"
        }
      ],
      "name": "ERC721InvalidApprover",
      "type": "error"
    },
    {
      "inputs": [
        {
          "internalType": "address",
          "name": "operator",
          "type": "address"
        }
      ],
      "name": "ERC721InvalidOperator",
      "type": "error"
    },
    {
      "inputs": [
        {
          "internalType": "address",
          "name": "owner",
          "type": "address"
        }
      ],
      "name": "ERC721InvalidOwner",
      "type": "error"
    },
    {
      "inputs": [
        {
          "internalType": "address",
          "name": "receiver",
          "type": "address"
        }
      ],
      "name": "ERC721InvalidReceiver",
      "type": "error"
    },
    {
      "inputs": [
        {
          "internalType": "address",
          "name": "sender",
          "type": "address"
        }
      ],
      "name": "ERC721InvalidSender",
      "type": "error"
    },
    {
      "inputs": [
        {
          "internalType": "uint256",
          "name": "tokenId",
          "type": "uint256"
        }
      ],
      "name": "ERC721NonexistentToken",
      "type": "error"
    },
    {
      "inputs": [
        {
          "internalType": "address",
          "name": "owner",
          "type": "address"
        },
        {
          "internalType": "uint256",
          "name": "index",
          "type": "uint256"
        }
      ],
      "name": "ERC721OutOfBoundsIndex",
      "type": "error"
    },
    {
      "inputs": [],
      "name": "InvalidInitialization",
      "type": "error"
    },
    {
      "inputs": [],
      "name": "NotInitializing",
      "type": "error"
    },
    {
      "inputs": [
        {
          "internalType": "address",
          "name": "owner",
          "type": "address"
        }
      ],
      "name": "OwnableInvalidOwner",
      "type": "error"
    },
    {
      "inputs": [
        {
          "internalType": "address",
          "name": "account",
          "type": "address"
        }
      ],
      "name": "OwnableUnauthorizedAccount",
      "type": "error"
    },
    {
      "anonymous": false,
      "inputs": [
        {
          "indexed": true,
          "internalType": "address",
          "name": "owner",
          "type": "address"
        },
        {
          "indexed": true,
          "internalType": "address",
          "name": "approved",
          "type": "address"
        },
        {
          "indexed": true,
          "internalType": "uint256",
          "name": "tokenId",
          "type": "uint256"
        }
      ],
      "name": "Approval",
      "type": "event"
    },
    {
      "anonymous": false,
      "inputs": [
        {
          "indexed": true,
          "internalType": "address",
          "name": "owner",
          "type": "address"
        },
        {
          "indexed": true,
          "internalType": "address",
          "name": "operator",
          "type": "address"
        },
        {
          "indexed": false,
          "internalType": "bool",
          "name": "approved",
          "type": "bool"
        }
      ],
      "name": "ApprovalForAll",
      "type": "event"
    },
    {
      "anonymous": false,
      "inputs": [
        {
          "indexed": true,
          "internalType": "address",
          "name": "contract_address",
          "type": "address"
        }
      ],
      "name": "BeaconProxyCreated",
      "type": "event"
    },
    {
      "anonymous": false,
      "inputs": [
        {
          "indexed": false,
          "internalType": "uint64",
          "name": "version",
          "type": "uint64"
        }
      ],
      "name": "Initialized",
      "type": "event"
    },
    {
      "anonymous": false,
      "inputs": [
        {
          "indexed": true,
          "internalType": "address",
          "name": "previousOwner",
          "type": "address"
        },
        {
          "indexed": true,
          "internalType": "address",
          "name": "newOwner",
          "type": "address"
        }
      ],
      "name": "OwnershipTransferred",
      "type": "event"
    },
    {
      "anonymous": false,
      "inputs": [
        {
          "indexed": true,
          "internalType": "address",
          "name": "from",
          "type": "address"
        },
        {
          "indexed": true,
          "internalType": "address",
          "name": "to",
          "type": "address"
        },
        {
          "indexed": true,
          "internalType": "uint256",
          "name": "tokenId",
          "type": "uint256"
        }
      ],
      "name": "Transfer",
      "type": "event"
    },
    {
      "anonymous": false,
      "inputs": [
        {
          "indexed": true,
          "internalType": "address",
          "name": "implementation",
          "type": "address"
        }
      ],
      "name": "Upgraded",
      "type": "event"
    },
    {
      "inputs": [
        {
          "internalType": "address",
          "name": "to",
          "type": "address"
        },
        {
          "internalType": "uint256",
          "name": "tokenId",
          "type": "uint256"
        }
      ],
      "name": "approve",
      "outputs": [],
      "stateMutability": "nonpayable",
      "type": "function"
    },
    {
      "inputs": [
        {
          "internalType": "address",
          "name": "owner",
          "type": "address"
        }
      ],
      "name": "balanceOf",
      "outputs": [
        {
          "internalType": "uint256",
          "name": "",
          "type": "uint256"
        }
      ],
      "stateMutability": "view",
      "type": "function"
    },
    {
      "inputs": [
        {
          "internalType": "uint256",
          "name": "tokenId",
          "type": "uint256"
        }
      ],
      "name": "burn",
      "outputs": [],
      "stateMutability": "nonpayable",
      "type": "function"
    },
    {
      "inputs": [
        {
          "internalType": "bytes",
          "name": "initData",
          "type": "bytes"
        }
      ],
      "name": "deploy",
      "outputs": [
        {
          "internalType": "address",
          "name": "childAddres",
          "type": "address"
        }
      ],
      "stateMutability": "nonpayable",
      "type": "function"
    },
    {
      "inputs": [
        {
          "internalType": "uint256",
          "name": "tokenId",
          "type": "uint256"
        }
      ],
      "name": "getApproved",
      "outputs": [
        {
          "internalType": "address",
          "name": "",
          "type": "address"
        }
      ],
      "stateMutability": "view",
      "type": "function"
    },
    {
      "inputs": [
        {
          "internalType": "bytes4",
          "name": "selector",
          "type": "bytes4"
        }
      ],
      "name": "implementation",
      "outputs": [
        {
          "internalType": "address",
          "name": "",
          "type": "address"
        }
      ],
      "stateMutability": "view",
      "type": "function"
    },
    {
      "inputs": [],
      "name": "implementation",
      "outputs": [
        {
          "internalType": "address",
          "name": "",
          "type": "address"
        }
      ],
      "stateMutability": "view",
      "type": "function"
    },
    {
      "inputs": [
        {
          "internalType": "address",
          "name": "owner",
          "type": "address"
        },
        {
          "internalType": "string",
          "name": "name",
          "type": "string"
        },
        {
          "internalType": "string",
          "name": "symbol",
          "type": "string"
        },
        {
          "internalType": "address",
          "name": "implementation",
          "type": "address"
        }
      ],
      "name": "initSolRootParent",
      "outputs": [],
      "stateMutability": "nonpayable",
      "type": "function"
    },
    {
      "inputs": [
        {
          "internalType": "address",
          "name": "owner",
          "type": "address"
        },
        {
          "internalType": "address",
          "name": "operator",
          "type": "address"
        }
      ],
      "name": "isApprovedForAll",
      "outputs": [
        {
          "internalType": "bool",
          "name": "",
          "type": "bool"
        }
      ],
      "stateMutability": "view",
      "type": "function"
    },
    {
      "inputs": [],
      "name": "name",
      "outputs": [
        {
          "internalType": "string",
          "name": "",
          "type": "string"
        }
      ],
      "stateMutability": "view",
      "type": "function"
    },
    {
      "inputs": [],
      "name": "owner",
      "outputs": [
        {
          "internalType": "address",
          "name": "",
          "type": "address"
        }
      ],
      "stateMutability": "view",
      "type": "function"
    },
    {
      "inputs": [
        {
          "internalType": "uint256",
          "name": "tokenId",
          "type": "uint256"
        }
      ],
      "name": "ownerOf",
      "outputs": [
        {
          "internalType": "address",
          "name": "",
          "type": "address"
        }
      ],
      "stateMutability": "view",
      "type": "function"
    },
    {
      "inputs": [],
      "name": "renounceOwnership",
      "outputs": [],
      "stateMutability": "nonpayable",
      "type": "function"
    },
    {
      "inputs": [
        {
          "internalType": "address",
          "name": "from",
          "type": "address"
        },
        {
          "internalType": "address",
          "name": "to",
          "type": "address"
        },
        {
          "internalType": "uint256",
          "name": "tokenId",
          "type": "uint256"
        }
      ],
      "name": "safeTransferFrom",
      "outputs": [],
      "stateMutability": "nonpayable",
      "type": "function"
    },
    {
      "inputs": [
        {
          "internalType": "address",
          "name": "from",
          "type": "address"
        },
        {
          "internalType": "address",
          "name": "to",
          "type": "address"
        },
        {
          "internalType": "uint256",
          "name": "tokenId",
          "type": "uint256"
        },
        {
          "internalType": "bytes",
          "name": "data",
          "type": "bytes"
        }
      ],
      "name": "safeTransferFrom",
      "outputs": [],
      "stateMutability": "nonpayable",
      "type": "function"
    },
    {
      "inputs": [
        {
          "internalType": "address",
          "name": "operator",
          "type": "address"
        },
        {
          "internalType": "bool",
          "name": "approved",
          "type": "bool"
        }
      ],
      "name": "setApprovalForAll",
      "outputs": [],
      "stateMutability": "nonpayable",
      "type": "function"
    },
    {
      "inputs": [
        {
          "internalType": "bytes4[]",
          "name": "selectors",
          "type": "bytes4[]"
        },
        {
          "internalType": "address",
          "name": "impl",
          "type": "address"
        }
      ],
      "name": "setDiamondImplementation",
      "outputs": [],
      "stateMutability": "nonpayable",
      "type": "function"
    },
    {
      "inputs": [
        {
          "internalType": "bytes4",
          "name": "interfaceId",
          "type": "bytes4"
        }
      ],
      "name": "supportsInterface",
      "outputs": [
        {
          "internalType": "bool",
          "name": "",
          "type": "bool"
        }
      ],
      "stateMutability": "view",
      "type": "function"
    },
    {
      "inputs": [],
      "name": "symbol",
      "outputs": [
        {
          "internalType": "string",
          "name": "",
          "type": "string"
        }
      ],
      "stateMutability": "view",
      "type": "function"
    },
    {
      "inputs": [
        {
          "internalType": "uint256",
          "name": "index",
          "type": "uint256"
        }
      ],
      "name": "tokenByIndex",
      "outputs": [
        {
          "internalType": "uint256",
          "name": "",
          "type": "uint256"
        }
      ],
      "stateMutability": "view",
      "type": "function"
    },
    {
      "inputs": [
        {
          "internalType": "address",
          "name": "owner",
          "type": "address"
        },
        {
          "internalType": "uint256",
          "name": "index",
          "type": "uint256"
        }
      ],
      "name": "tokenOfOwnerByIndex",
      "outputs": [
        {
          "internalType": "uint256",
          "name": "",
          "type": "uint256"
        }
      ],
      "stateMutability": "view",
      "type": "function"
    },
    {
      "inputs": [
        {
          "internalType": "uint256",
          "name": "tokenId",
          "type": "uint256"
        }
      ],
      "name": "tokenURI",
      "outputs": [
        {
          "internalType": "string",
          "name": "",
          "type": "string"
        }
      ],
      "stateMutability": "view",
      "type": "function"
    },
    {
      "inputs": [],
      "name": "totalSupply",
      "outputs": [
        {
          "internalType": "uint256",
          "name": "",
          "type": "uint256"
        }
      ],
      "stateMutability": "view",
      "type": "function"
    },
    {
      "inputs": [
        {
          "internalType": "address",
          "name": "from",
          "type": "address"
        },
        {
          "internalType": "address",
          "name": "to",
          "type": "address"
        },
        {
          "internalType": "uint256",
          "name": "tokenId",
          "type": "uint256"
        }
      ],
      "name": "transferFrom",
      "outputs": [],
      "stateMutability": "nonpayable",
      "type": "function"
    },
    {
      "inputs": [
        {
          "internalType": "address",
          "name": "newOwner",
          "type": "address"
        }
      ],
      "name": "transferOwnership",
      "outputs": [],
      "stateMutability": "nonpayable",
      "type": "function"
    },
    {
      "inputs": [
        {
          "internalType": "address",
          "name": "newImplementation",
          "type": "address"
        }
      ],
      "name": "upgradeTo",
      "outputs": [],
      "stateMutability": "nonpayable",
      "type": "function"
    }
  ],
  "bytecode": "0x60806040523480156200001157600080fd5b506040516200510638038062005106833981810160405281019062000037919062000859565b6200004b848484846200005560201b60201c565b5050505062000cdd565b6000620000676200022260201b60201c565b905060008160000160089054906101000a900460ff1615905060008260000160009054906101000a900467ffffffffffffffff1690506000808267ffffffffffffffff16148015620000b65750825b9050600060018367ffffffffffffffff16148015620000ec575060003073ffffffffffffffffffffffffffffffffffffffff163b145b905081158015620000fb575080155b1562000133576040517ff92ee8a900000000000000000000000000000000000000000000000000000000815260040160405180910390fd5b60018560000160006101000a81548167ffffffffffffffff021916908367ffffffffffffffff1602179055508315620001845760018560000160086101000a81548160ff0219169083151502179055505b62000195896200024a60201b60201c565b620001a788886200026e60201b60201c565b620001b8866200029460201b60201c565b8315620002175760008560000160086101000a81548160ff0219169083151502179055507fc7f505b2f371ae2175ee4913f4499e1f2633a7b5936321eed1cdaeb6115181d260016040516200020e91906200096a565b60405180910390a15b505050505050505050565b60007ff0c57e16840df040f15088dc2f81fe391c3923bec73e23a9662efc9c229c6a00905090565b6200025a620002b860201b60201c565b6200026b816200030160201b60201c565b50565b6200027e620002b860201b60201c565b6200029082826200039a60201b60201c565b5050565b620002a4620002b860201b60201c565b620002b581620003eb60201b60201c565b50565b620002c8620004e260201b60201c565b620002ff576040517fd7e6bcf800000000000000000000000000000000000000000000000000000000815260040160405180910390fd5b565b62000311620002b860201b60201c565b600073ffffffffffffffffffffffffffffffffffffffff168173ffffffffffffffffffffffffffffffffffffffff1603620003865760006040517f1e4fbdf70000000000000000000000000000000000000000000000000000000081526004016200037d919062000998565b60405180910390fd5b62000397816200050a60201b60201c565b50565b620003aa620002b860201b60201c565b6000620003bc620005e960201b60201c565b905082816000019081620003d1919062000bf6565b5081816001019081620003e5919062000bf6565b50505050565b60008173ffffffffffffffffffffffffffffffffffffffff163b036200044a57806040517f847ac56400000000000000000000000000000000000000000000000000000000815260040162000441919062000998565b60405180910390fd5b806200045b6200061160201b60201c565b60000160006101000a81548173ffffffffffffffffffffffffffffffffffffffff021916908373ffffffffffffffffffffffffffffffffffffffff1602179055508073ffffffffffffffffffffffffffffffffffffffff167fbc7cd75a20ee27fd9adebab32041f755214dbc6bffa90cc0225b39da2e5c2d3b60405160405180910390a250565b6000620004f46200022260201b60201c565b60000160089054906101000a900460ff16905090565b60006200051c6200063960201b60201c565b905060008160000160009054906101000a900473ffffffffffffffffffffffffffffffffffffffff169050828260000160006101000a81548173ffffffffffffffffffffffffffffffffffffffff021916908373ffffffffffffffffffffffffffffffffffffffff1602179055508273ffffffffffffffffffffffffffffffffffffffff168173ffffffffffffffffffffffffffffffffffffffff167f8be0079c531659141344cd1fd0a4f28419497f9722a3daafe3b4186f6b6457e060405160405180910390a3505050565b60007f80bb2b638cc20bc4d0a60d66940f3ab4a00c1d7b313497ca82fb0b4ab0079300905090565b60007f9173b5f1e33f7955d1373e5a3b2c5b344edfb3ff22505338c505d1ded4f6cb00905090565b60007f9016d09d72d40fdae2fd8ceac6b6234c7706214fd39c1cd1e609a0528c199300905090565b6000604051905090565b600080fd5b600080fd5b600073ffffffffffffffffffffffffffffffffffffffff82169050919050565b6000620006a28262000675565b9050919050565b620006b48162000695565b8114620006c057600080fd5b50565b600081519050620006d481620006a9565b92915050565b600080fd5b600080fd5b6000601f19601f8301169050919050565b7f4e487b7100000000000000000000000000000000000000000000000000000000600052604160045260246000fd5b6200072f82620006e4565b810181811067ffffffffffffffff82111715620007515762000750620006f5565b5b80604052505050565b60006200076662000661565b905062000774828262000724565b919050565b600067ffffffffffffffff821115620007975762000796620006f5565b5b620007a282620006e4565b9050602081019050919050565b60005b83811015620007cf578082015181840152602081019050620007b2565b60008484015250505050565b6000620007f2620007ec8462000779565b6200075a565b905082815260208101848484011115620008115762000810620006df565b5b6200081e848285620007af565b509392505050565b600082601f8301126200083e576200083d620006da565b5b815162000850848260208601620007db565b91505092915050565b600080600080608085870312156200087657620008756200066b565b5b60006200088687828801620006c3565b945050602085015167ffffffffffffffff811115620008aa57620008a962000670565b5b620008b88782880162000826565b935050604085015167ffffffffffffffff811115620008dc57620008db62000670565b5b620008ea8782880162000826565b9250506060620008fd87828801620006c3565b91505092959194509250565b6000819050919050565b600067ffffffffffffffff82169050919050565b6000819050919050565b6000620009526200094c620009468462000909565b62000927565b62000913565b9050919050565b620009648162000931565b82525050565b600060208201905062000981600083018462000959565b92915050565b620009928162000695565b82525050565b6000602082019050620009af600083018462000987565b92915050565b600081519050919050565b7f4e487b7100000000000000000000000000000000000000000000000000000000600052602260045260246000fd5b6000600282049050600182168062000a0857607f821691505b60208210810362000a1e5762000a1d620009c0565b5b50919050565b60008190508160005260206000209050919050565b60006020601f8301049050919050565b600082821b905092915050565b60006008830262000a887fffffffffffffffffffffffffffffffffffffffffffffffffffffffffffffffff8262000a49565b62000a94868362000a49565b95508019841693508086168417925050509392505050565b6000819050919050565b600062000ad762000ad162000acb8462000aac565b62000927565b62000aac565b9050919050565b6000819050919050565b62000af38362000ab6565b62000b0b62000b028262000ade565b84845462000a56565b825550505050565b600090565b62000b2262000b13565b62000b2f81848462000ae8565b505050565b5b8181101562000b575762000b4b60008262000b18565b60018101905062000b35565b5050565b601f82111562000ba65762000b708162000a24565b62000b7b8462000a39565b8101602085101562000b8b578190505b62000ba362000b9a8562000a39565b83018262000b34565b50505b505050565b600082821c905092915050565b600062000bcb6000198460080262000bab565b1980831691505092915050565b600062000be6838362000bb8565b9150826002028217905092915050565b62000c0182620009b5565b67ffffffffffffffff81111562000c1d5762000c1c620006f5565b5b62000c298254620009ef565b62000c3682828562000b5b565b600060209050601f83116001811462000c6e576000841562000c59578287015190505b62000c65858262000bd8565b86555062000cd5565b601f19841662000c7e8662000a24565b60005b8281101562000ca85784890151825560018201915060208501945060208101905062000c81565b8683101562000cc8578489015162000cc4601f89168262000bb8565b8355505b6001600288020188555050505b505050505050565b6144198062000ced6000396000f3fe60806040523480156200001157600080fd5b5060043610620001b35760003560e01c80634f6ccce711620000f35780638da5cb5b11620000a5578063b88d4fde116200007b578063b88d4fde146200051e578063c87b56dd146200053e578063e985e9c51462000574578063f2fde38b14620005aa57620001b3565b80638da5cb5b14620004ba57806395d89b4114620004dc578063a22cb46514620004fe57620001b3565b80634f6ccce714620003ca5780635c60da1b14620004005780636352211e146200042257806370a082311462000458578063715018a6146200048e5780638aca1355146200049a57620001b3565b806318160ddd116200016b5780632f745c5911620001415780632f745c5914620003345780633659cfe6146200036a57806342842e0e146200038a57806342966c6814620003aa57620001b3565b806318160ddd14620002d25780631e6bfd0814620002f457806323b872dd146200031457620001b3565b806277436014620001b857806301ffc9a714620001ee57806306fdde031462000224578063081812fc1462000246578063095ea7b3146200027c5780630d741577146200029c575b600080fd5b620001d66004803603810190620001d0919062002c3a565b620005ca565b604051620001e5919062002cd0565b60405180910390f35b6200020c600480360381019062000206919062002d4a565b62000609565b6040516200021b919062002d99565b60405180910390f35b6200022e62000666565b6040516200023d919062002e3f565b60405180910390f35b6200026460048036038101906200025e919062002e9e565b62000711565b60405162000273919062002cd0565b60405180910390f35b6200029a600480360381019062000294919062002f01565b62000731565b005b620002ba6004803603810190620002b4919062002d4a565b6200074b565b604051620002c9919062002cd0565b60405180910390f35b620002dc620007d1565b604051620002eb919062002f59565b60405180910390f35b6200031260048036038101906200030c919062003051565b620007ee565b005b6200033260048036038101906200032c9190620030b7565b620008d6565b005b6200035260048036038101906200034c919062002f01565b620009e2565b60405162000361919062002f59565b60405180910390f35b62000388600480360381019062000382919062003113565b62000aa0565b005b620003a86004803603810190620003a29190620030b7565b62000ab8565b005b620003c86004803603810190620003c2919062002e9e565b62000ada565b005b620003e86004803603810190620003e2919062002e9e565b62000af5565b604051620003f7919062002f59565b60405180910390f35b6200040a62000b83565b60405162000419919062002cd0565b60405180910390f35b6200044060048036038101906200043a919062002e9e565b62000bb8565b6040516200044f919062002cd0565b60405180910390f35b62000476600480360381019062000470919062003113565b62000bcc565b60405162000485919062002f59565b60405180910390f35b6200049862000c9a565b005b620004b86004803603810190620004b29190620031f9565b62000cb2565b005b620004c462000e67565b604051620004d3919062002cd0565b60405180910390f35b620004e662000ea1565b604051620004f5919062002e3f565b60405180910390f35b6200051c6004803603810190620005169190620032da565b62000f4c565b005b6200053c600480360381019062000536919062003321565b62000f66565b005b6200055c600480360381019062000556919062002e9e565b62000f87565b6040516200056b919062002e3f565b60405180910390f35b6200059260048036038101906200058c9190620033b2565b62000ffa565b604051620005a1919062002d99565b60405180910390f35b620005c86004803603810190620005c2919062003113565b6200109e565b005b6000620005d7826200112b565b905062000604620005e76200113f565b8273ffffffffffffffffffffffffffffffffffffffff1662001147565b919050565b6000807bffffffffffffffffffffffffffffffffffffffffffffffffffffffff1916827bffffffffffffffffffffffffffffffffffffffffffffffffffffffff191614806200065f57506200065e8262001248565b5b9050919050565b6060600062000674620012c5565b9050806000018054620006879062003428565b80601f0160208091040260200160405190810160405280929190818152602001828054620006b59062003428565b8015620007065780601f10620006da5761010080835404028352916020019162000706565b820191906000526020600020905b815481529060010190602001808311620006e857829003601f168201915b505050505091505090565b60006200071e82620012ed565b506200072a826200137a565b9050919050565b620007478282620007416200113f565b620013c7565b5050565b600062000757620013db565b6000016000837bffffffffffffffffffffffffffffffffffffffffffffffffffffffff19167bffffffffffffffffffffffffffffffffffffffffffffffffffffffff1916815260200190815260200160002060009054906101000a900473ffffffffffffffffffffffffffffffffffffffff169050919050565b600080620007de62001403565b9050806002018054905091505090565b620007f86200142b565b600062000804620013db565b905060005b8351811015620008d0578282600001600086848151811062000830576200082f6200345d565b5b60200260200101517bffffffffffffffffffffffffffffffffffffffffffffffffffffffff19167bffffffffffffffffffffffffffffffffffffffffffffffffffffffff1916815260200190815260200160002060006101000a81548173ffffffffffffffffffffffffffffffffffffffff021916908373ffffffffffffffffffffffffffffffffffffffff160217905550808060010191505062000809565b50505050565b600073ffffffffffffffffffffffffffffffffffffffff168273ffffffffffffffffffffffffffffffffffffffff16036200094b5760006040517f64a0ae9200000000000000000000000000000000000000000000000000000000815260040162000942919062002cd0565b60405180910390fd5b60006200096383836200095d6200113f565b620014bb565b90508373ffffffffffffffffffffffffffffffffffffffff168173ffffffffffffffffffffffffffffffffffffffff1614620009dc578382826040517f64283d7b000000000000000000000000000000000000000000000000000000008152600401620009d3939291906200348c565b60405180910390fd5b50505050565b600080620009ef62001403565b9050620009fc8462000bcc565b831062000a445783836040517fa57d13dc00000000000000000000000000000000000000000000000000000000815260040162000a3b929190620034c9565b60405180910390fd5b8060000160008573ffffffffffffffffffffffffffffffffffffffff1673ffffffffffffffffffffffffffffffffffffffff16815260200190815260200160002060008481526020019081526020016000205491505092915050565b62000aaa6200142b565b62000ab581620014d3565b50565b62000ad58383836040518060200160405280600081525062000f66565b505050565b62000af160008262000aeb6200113f565b620014bb565b5050565b60008062000b0262001403565b905062000b0e620007d1565b831062000b57576000836040517fa57d13dc00000000000000000000000000000000000000000000000000000000815260040162000b4e929190620034c9565b60405180910390fd5b80600201838154811062000b705762000b6f6200345d565b5b9060005260206000200154915050919050565b600062000b8f620015c4565b60000160009054906101000a900473ffffffffffffffffffffffffffffffffffffffff16905090565b600062000bc582620012ed565b9050919050565b60008062000bd9620012c5565b9050600073ffffffffffffffffffffffffffffffffffffffff168373ffffffffffffffffffffffffffffffffffffffff160362000c505760006040517f89c62b6400000000000000000000000000000000000000000000000000000000815260040162000c47919062002cd0565b60405180910390fd5b8060030160008473ffffffffffffffffffffffffffffffffffffffff1673ffffffffffffffffffffffffffffffffffffffff16815260200190815260200160002054915050919050565b62000ca46200142b565b62000cb06000620015ec565b565b600062000cbe620016c5565b905060008160000160089054906101000a900460ff1615905060008260000160009054906101000a900467ffffffffffffffff1690506000808267ffffffffffffffff1614801562000d0d5750825b9050600060018367ffffffffffffffff1614801562000d43575060003073ffffffffffffffffffffffffffffffffffffffff163b145b90508115801562000d52575080155b1562000d8a576040517ff92ee8a900000000000000000000000000000000000000000000000000000000815260040160405180910390fd5b60018560000160006101000a81548167ffffffffffffffff021916908367ffffffffffffffff160217905550831562000ddb5760018560000160086101000a81548160ff0219169083151502179055505b62000de689620016ed565b62000df2888862001705565b62000dfd866200171f565b831562000e5c5760008560000160086101000a81548160ff0219169083151502179055507fc7f505b2f371ae2175ee4913f4499e1f2633a7b5936321eed1cdaeb6115181d2600160405162000e53919062003557565b60405180910390a15b505050505050505050565b60008062000e7462001737565b90508060000160009054906101000a900473ffffffffffffffffffffffffffffffffffffffff1691505090565b6060600062000eaf620012c5565b905080600101805462000ec29062003428565b80601f016020809104026020016040519081016040528092919081815260200182805462000ef09062003428565b801562000f415780601f1062000f155761010080835404028352916020019162000f41565b820191906000526020600020905b81548152906001019060200180831162000f2357829003601f168201915b505050505091505090565b62000f6262000f5a6200113f565b83836200175f565b5050565b62000f73848484620008d6565b62000f8184848484620018e4565b50505050565b606062000f9482620012ed565b50600062000fa162001aac565b9050600081511162000fc3576040518060200160405280600081525062000ff2565b8062000fcf8462001ac3565b60405160200162000fe2929190620035b6565b6040516020818303038152906040525b915050919050565b60008062001007620012c5565b90508060050160008573ffffffffffffffffffffffffffffffffffffffff1673ffffffffffffffffffffffffffffffffffffffff16815260200190815260200160002060008473ffffffffffffffffffffffffffffffffffffffff1673ffffffffffffffffffffffffffffffffffffffff16815260200190815260200160002060009054906101000a900460ff1691505092915050565b620010a86200142b565b600073ffffffffffffffffffffffffffffffffffffffff168173ffffffffffffffffffffffffffffffffffffffff16036200111d5760006040517f1e4fbdf700000000000000000000000000000000000000000000000000000000815260040162001114919062002cd0565b60405180910390fd5b6200112881620015ec565b50565b6000620011388262001b9c565b9050919050565b600033905090565b600073ffffffffffffffffffffffffffffffffffffffff168273ffffffffffffffffffffffffffffffffffffffff1603620011bc5760006040517f64a0ae92000000000000000000000000000000000000000000000000000000008152600401620011b3919062002cd0565b60405180910390fd5b6000620011cc83836000620014bb565b9050600073ffffffffffffffffffffffffffffffffffffffff168173ffffffffffffffffffffffffffffffffffffffff1614620012435760006040517f73c6ac6e0000000000000000000000000000000000000000000000000000000081526004016200123a919062002cd0565b60405180910390fd5b505050565b60007f780e9d63000000000000000000000000000000000000000000000000000000007bffffffffffffffffffffffffffffffffffffffffffffffffffffffff1916827bffffffffffffffffffffffffffffffffffffffffffffffffffffffff19161480620012be5750620012bd8262001c23565b5b9050919050565b60007f80bb2b638cc20bc4d0a60d66940f3ab4a00c1d7b313497ca82fb0b4ab0079300905090565b600080620012fb8362001d09565b9050600073ffffffffffffffffffffffffffffffffffffffff168173ffffffffffffffffffffffffffffffffffffffff16036200137157826040517f7e27328900000000000000000000000000000000000000000000000000000000815260040162001368919062002f59565b60405180910390fd5b80915050919050565b60008062001387620012c5565b905080600401600084815260200190815260200160002060009054906101000a900473ffffffffffffffffffffffffffffffffffffffff16915050919050565b620013d6838383600162001d56565b505050565b60007ff952b68eb7b8204e3646fa3087f9877c2187132fc04d5c3d2533224865755200905090565b60007f645e039705490088daad89bae25049a34f4a9072d398537b1ab2425f24cbed00905090565b620014356200113f565b73ffffffffffffffffffffffffffffffffffffffff166200145562000e67565b73ffffffffffffffffffffffffffffffffffffffff1614620014b9576200147b6200113f565b6040517f118cdaa7000000000000000000000000000000000000000000000000000000008152600401620014b0919062002cd0565b60405180910390fd5b565b6000620014ca84848462001f38565b90509392505050565b60008173ffffffffffffffffffffffffffffffffffffffff163b036200153257806040517f847ac56400000000000000000000000000000000000000000000000000000000815260040162001529919062002cd0565b60405180910390fd5b806200153d620015c4565b60000160006101000a81548173ffffffffffffffffffffffffffffffffffffffff021916908373ffffffffffffffffffffffffffffffffffffffff1602179055508073ffffffffffffffffffffffffffffffffffffffff167fbc7cd75a20ee27fd9adebab32041f755214dbc6bffa90cc0225b39da2e5c2d3b60405160405180910390a250565b60007f9173b5f1e33f7955d1373e5a3b2c5b344edfb3ff22505338c505d1ded4f6cb00905090565b6000620015f862001737565b905060008160000160009054906101000a900473ffffffffffffffffffffffffffffffffffffffff169050828260000160006101000a81548173ffffffffffffffffffffffffffffffffffffffff021916908373ffffffffffffffffffffffffffffffffffffffff1602179055508273ffffffffffffffffffffffffffffffffffffffff168173ffffffffffffffffffffffffffffffffffffffff167f8be0079c531659141344cd1fd0a4f28419497f9722a3daafe3b4186f6b6457e060405160405180910390a3505050565b60007ff0c57e16840df040f15088dc2f81fe391c3923bec73e23a9662efc9c229c6a00905090565b620016f762002065565b6200170281620020a8565b50565b6200170f62002065565b6200171b828262002135565b5050565b6200172962002065565b6200173481620014d3565b50565b60007f9016d09d72d40fdae2fd8ceac6b6234c7706214fd39c1cd1e609a0528c199300905090565b60006200176b620012c5565b9050600073ffffffffffffffffffffffffffffffffffffffff168373ffffffffffffffffffffffffffffffffffffffff1603620017e157826040517f5b08ba18000000000000000000000000000000000000000000000000000000008152600401620017d8919062002cd0565b60405180910390fd5b818160050160008673ffffffffffffffffffffffffffffffffffffffff1673ffffffffffffffffffffffffffffffffffffffff16815260200190815260200160002060008573ffffffffffffffffffffffffffffffffffffffff1673ffffffffffffffffffffffffffffffffffffffff16815260200190815260200160002060006101000a81548160ff0219169083151502179055508273ffffffffffffffffffffffffffffffffffffffff168473ffffffffffffffffffffffffffffffffffffffff167f17307eab39ab6107e8899845ad3d59bd9653f200f220920489ca2b5937696c3184604051620018d6919062002d99565b60405180910390a350505050565b60008373ffffffffffffffffffffffffffffffffffffffff163b111562001aa6578273ffffffffffffffffffffffffffffffffffffffff1663150b7a026200192b6200113f565b8685856040518563ffffffff1660e01b81526004016200194f94939291906200363b565b6020604051808303816000875af19250505080156200198e57506040513d601f19601f820116820180604052508101906200198b9190620036a6565b60015b62001a18573d8060008114620019c1576040519150601f19603f3d011682016040523d82523d6000602084013e620019c6565b606091505b50600081510362001a1057836040517f64a0ae9200000000000000000000000000000000000000000000000000000000815260040162001a07919062002cd0565b60405180910390fd5b805181602001fd5b63150b7a0260e01b7bffffffffffffffffffffffffffffffffffffffffffffffffffffffff1916817bffffffffffffffffffffffffffffffffffffffffffffffffffffffff19161462001aa457836040517f64a0ae9200000000000000000000000000000000000000000000000000000000815260040162001a9b919062002cd0565b60405180910390fd5b505b50505050565b606060405180602001604052806000815250905090565b60606000600162001ad4846200217a565b01905060008167ffffffffffffffff81111562001af65762001af562002af3565b5b6040519080825280601f01601f19166020018201604052801562001b295781602001600182028036833780820191505090505b509050600082602001820190505b60011562001b91578080600190039150507f3031323334353637383961626364656600000000000000000000000000000000600a86061a8153600a858162001b845762001b83620036d8565b5b0494506000850362001b37575b819350505050919050565b6000308260405162001bae9062002ab6565b62001bbb92919062003707565b604051809103906000f08015801562001bd8573d6000803e3d6000fd5b5090508073ffffffffffffffffffffffffffffffffffffffff167f67a35b24a75889aab9842ae140ee122b09f0f754a9f5fa2e99b0879d9fe95f0560405160405180910390a2919050565b60007f80ac58cd000000000000000000000000000000000000000000000000000000007bffffffffffffffffffffffffffffffffffffffffffffffffffffffff1916827bffffffffffffffffffffffffffffffffffffffffffffffffffffffff1916148062001cef57507f5b5e139f000000000000000000000000000000000000000000000000000000007bffffffffffffffffffffffffffffffffffffffffffffffffffffffff1916827bffffffffffffffffffffffffffffffffffffffffffffffffffffffff1916145b8062001d02575062001d0182620022e6565b5b9050919050565b60008062001d16620012c5565b905080600201600084815260200190815260200160002060009054906101000a900473ffffffffffffffffffffffffffffffffffffffff16915050919050565b600062001d62620012c5565b9050818062001d9e5750600073ffffffffffffffffffffffffffffffffffffffff168373ffffffffffffffffffffffffffffffffffffffff1614155b1562001edd57600062001db185620012ed565b9050600073ffffffffffffffffffffffffffffffffffffffff168473ffffffffffffffffffffffffffffffffffffffff161415801562001e1d57508373ffffffffffffffffffffffffffffffffffffffff168173ffffffffffffffffffffffffffffffffffffffff1614155b801562001e33575062001e31818562000ffa565b155b1562001e7857836040517fa9fbf51f00000000000000000000000000000000000000000000000000000000815260040162001e6f919062002cd0565b60405180910390fd5b821562001edb57848673ffffffffffffffffffffffffffffffffffffffff168273ffffffffffffffffffffffffffffffffffffffff167f8c5be1e5ebec7d5bd14f71427d1e84f3dd0314c0f7b2291e5b200ac8c7c3b92560405160405180910390a45b505b8481600401600086815260200190815260200160002060006101000a81548173ffffffffffffffffffffffffffffffffffffffff021916908373ffffffffffffffffffffffffffffffffffffffff1602179055505050505050565b60008062001f4885858562002350565b9050600073ffffffffffffffffffffffffffffffffffffffff168173ffffffffffffffffffffffffffffffffffffffff160362001f905762001f8a8462002588565b62001fd2565b8473ffffffffffffffffffffffffffffffffffffffff168173ffffffffffffffffffffffffffffffffffffffff161462001fd15762001fd08185620025e6565b5b5b600073ffffffffffffffffffffffffffffffffffffffff168573ffffffffffffffffffffffffffffffffffffffff16036200201857620020128462002765565b6200205a565b8473ffffffffffffffffffffffffffffffffffffffff168173ffffffffffffffffffffffffffffffffffffffff161462002059576200205885856200285e565b5b5b809150509392505050565b6200206f62002900565b620020a6576040517fd7e6bcf800000000000000000000000000000000000000000000000000000000815260040160405180910390fd5b565b620020b262002065565b600073ffffffffffffffffffffffffffffffffffffffff168173ffffffffffffffffffffffffffffffffffffffff1603620021275760006040517f1e4fbdf70000000000000000000000000000000000000000000000000000000081526004016200211e919062002cd0565b60405180910390fd5b6200213281620015ec565b50565b6200213f62002065565b60006200214b620012c5565b90508281600001908162002160919062003903565b508181600101908162002174919062003903565b50505050565b600080600090507a184f03e93ff9f4daa797ed6e38ed64bf6a1f0100000000000000008310620021dc577a184f03e93ff9f4daa797ed6e38ed64bf6a1f0100000000000000008381620021d257620021d1620036d8565b5b0492506040810190505b6d04ee2d6d415b85acef810000000083106200221d576d04ee2d6d415b85acef81000000008381620022135762002212620036d8565b5b0492506020810190505b662386f26fc1000083106200225057662386f26fc100008381620022465762002245620036d8565b5b0492506010810190505b6305f5e10083106200227d576305f5e1008381620022735762002272620036d8565b5b0492506008810190505b6127108310620022a65761271083816200229c576200229b620036d8565b5b0492506004810190505b60648310620022cd5760648381620022c357620022c2620036d8565b5b0492506002810190505b600a8310620022dd576001810190505b80915050919050565b60007f01ffc9a7000000000000000000000000000000000000000000000000000000007bffffffffffffffffffffffffffffffffffffffffffffffffffffffff1916827bffffffffffffffffffffffffffffffffffffffffffffffffffffffff1916149050919050565b6000806200235d620012c5565b905060006200236c8562001d09565b9050600073ffffffffffffffffffffffffffffffffffffffff168473ffffffffffffffffffffffffffffffffffffffff1614620023b157620023b081858762002922565b5b600073ffffffffffffffffffffffffffffffffffffffff168173ffffffffffffffffffffffffffffffffffffffff16146200244757620023f660008660008062001d56565b60018260030160008373ffffffffffffffffffffffffffffffffffffffff1673ffffffffffffffffffffffffffffffffffffffff168152602001908152602001600020600082825403925050819055505b600073ffffffffffffffffffffffffffffffffffffffff168673ffffffffffffffffffffffffffffffffffffffff1614620024cd5760018260030160008873ffffffffffffffffffffffffffffffffffffffff1673ffffffffffffffffffffffffffffffffffffffff168152602001908152602001600020600082825401925050819055505b8582600201600087815260200190815260200160002060006101000a81548173ffffffffffffffffffffffffffffffffffffffff021916908373ffffffffffffffffffffffffffffffffffffffff160217905550848673ffffffffffffffffffffffffffffffffffffffff168273ffffffffffffffffffffffffffffffffffffffff167fddf252ad1be2c89b69c2b068fc378daa952ba7f163c4a11628f55a4df523b3ef60405160405180910390a480925050509392505050565b60006200259462001403565b9050806002018054905081600301600084815260200190815260200160002081905550806002018290806001815401808255809150506001900390600052602060002001600090919091909150555050565b6000620025f262001403565b90506000620026018462000bcc565b90506000826001016000858152602001908152602001600020549050818114620026ef5760008360000160008773ffffffffffffffffffffffffffffffffffffffff1673ffffffffffffffffffffffffffffffffffffffff1681526020019081526020016000206000848152602001908152602001600020549050808460000160008873ffffffffffffffffffffffffffffffffffffffff1673ffffffffffffffffffffffffffffffffffffffff1681526020019081526020016000206000848152602001908152602001600020819055508184600101600083815260200190815260200160002081905550505b826001016000858152602001908152602001600020600090558260000160008673ffffffffffffffffffffffffffffffffffffffff1673ffffffffffffffffffffffffffffffffffffffff1681526020019081526020016000206000838152602001908152602001600020600090555050505050565b60006200277162001403565b90506000600182600201805490506200278b919062003a19565b905060008260030160008581526020019081526020016000205490506000836002018381548110620027c257620027c16200345d565b5b9060005260206000200154905080846002018381548110620027e957620027e86200345d565b5b90600052602060002001819055508184600301600083815260200190815260200160002081905550836003016000868152602001908152602001600020600090558360020180548062002841576200284062003a54565b5b600190038181906000526020600020016000905590555050505050565b60006200286a62001403565b9050600060016200287b8562000bcc565b62002887919062003a19565b9050828260000160008673ffffffffffffffffffffffffffffffffffffffff1673ffffffffffffffffffffffffffffffffffffffff168152602001908152602001600020600083815260200190815260200160002081905550808260010160008581526020019081526020016000208190555050505050565b60006200290c620016c5565b60000160089054906101000a900460ff16905090565b6200292f838383620029ee565b620029e957600073ffffffffffffffffffffffffffffffffffffffff168373ffffffffffffffffffffffffffffffffffffffff1603620029a857806040517f7e2732890000000000000000000000000000000000000000000000000000000081526004016200299f919062002f59565b60405180910390fd5b81816040517f177e802f000000000000000000000000000000000000000000000000000000008152600401620029e0929190620034c9565b60405180910390fd5b505050565b60008073ffffffffffffffffffffffffffffffffffffffff168373ffffffffffffffffffffffffffffffffffffffff161415801562002aad57508273ffffffffffffffffffffffffffffffffffffffff168473ffffffffffffffffffffffffffffffffffffffff16148062002a6b575062002a6a848462000ffa565b5b8062002aac57508273ffffffffffffffffffffffffffffffffffffffff1662002a94836200137a565b73ffffffffffffffffffffffffffffffffffffffff16145b5b90509392505050565b6109608062003a8483390190565b6000604051905090565b600080fd5b600080fd5b600080fd5b600080fd5b6000601f19601f8301169050919050565b7f4e487b7100000000000000000000000000000000000000000000000000000000600052604160045260246000fd5b62002b2d8262002ae2565b810181811067ffffffffffffffff8211171562002b4f5762002b4e62002af3565b5b80604052505050565b600062002b6462002ac4565b905062002b72828262002b22565b919050565b600067ffffffffffffffff82111562002b955762002b9462002af3565b5b62002ba08262002ae2565b9050602081019050919050565b82818337600083830152505050565b600062002bd362002bcd8462002b77565b62002b58565b90508281526020810184848401111562002bf25762002bf162002add565b5b62002bff84828562002bad565b509392505050565b600082601f83011262002c1f5762002c1e62002ad8565b5b813562002c3184826020860162002bbc565b91505092915050565b60006020828403121562002c535762002c5262002ace565b5b600082013567ffffffffffffffff81111562002c745762002c7362002ad3565b5b62002c828482850162002c07565b91505092915050565b600073ffffffffffffffffffffffffffffffffffffffff82169050919050565b600062002cb88262002c8b565b9050919050565b62002cca8162002cab565b82525050565b600060208201905062002ce7600083018462002cbf565b92915050565b60007fffffffff0000000000000000000000000000000000000000000000000000000082169050919050565b62002d248162002ced565b811462002d3057600080fd5b50565b60008135905062002d448162002d19565b92915050565b60006020828403121562002d635762002d6262002ace565b5b600062002d738482850162002d33565b91505092915050565b60008115159050919050565b62002d938162002d7c565b82525050565b600060208201905062002db0600083018462002d88565b92915050565b600081519050919050565b600082825260208201905092915050565b60005b8381101562002df257808201518184015260208101905062002dd5565b60008484015250505050565b600062002e0b8262002db6565b62002e17818562002dc1565b935062002e2981856020860162002dd2565b62002e348162002ae2565b840191505092915050565b6000602082019050818103600083015262002e5b818462002dfe565b905092915050565b6000819050919050565b62002e788162002e63565b811462002e8457600080fd5b50565b60008135905062002e988162002e6d565b92915050565b60006020828403121562002eb75762002eb662002ace565b5b600062002ec78482850162002e87565b91505092915050565b62002edb8162002cab565b811462002ee757600080fd5b50565b60008135905062002efb8162002ed0565b92915050565b6000806040838503121562002f1b5762002f1a62002ace565b5b600062002f2b8582860162002eea565b925050602062002f3e8582860162002e87565b9150509250929050565b62002f538162002e63565b82525050565b600060208201905062002f70600083018462002f48565b92915050565b600067ffffffffffffffff82111562002f945762002f9362002af3565b5b602082029050602081019050919050565b600080fd5b600062002fc162002fbb8462002f76565b62002b58565b9050808382526020820190506020840283018581111562002fe75762002fe662002fa5565b5b835b8181101562003014578062002fff888262002d33565b84526020840193505060208101905062002fe9565b5050509392505050565b600082601f83011262003036576200303562002ad8565b5b81356200304884826020860162002faa565b91505092915050565b600080604083850312156200306b576200306a62002ace565b5b600083013567ffffffffffffffff8111156200308c576200308b62002ad3565b5b6200309a858286016200301e565b9250506020620030ad8582860162002eea565b9150509250929050565b600080600060608486031215620030d357620030d262002ace565b5b6000620030e38682870162002eea565b9350506020620030f68682870162002eea565b9250506040620031098682870162002e87565b9150509250925092565b6000602082840312156200312c576200312b62002ace565b5b60006200313c8482850162002eea565b91505092915050565b600067ffffffffffffffff82111562003163576200316262002af3565b5b6200316e8262002ae2565b9050602081019050919050565b6000620031926200318c8462003145565b62002b58565b905082815260208101848484011115620031b157620031b062002add565b5b620031be84828562002bad565b509392505050565b600082601f830112620031de57620031dd62002ad8565b5b8135620031f08482602086016200317b565b91505092915050565b6000806000806080858703121562003216576200321562002ace565b5b6000620032268782880162002eea565b945050602085013567ffffffffffffffff8111156200324a576200324962002ad3565b5b6200325887828801620031c6565b935050604085013567ffffffffffffffff8111156200327c576200327b62002ad3565b5b6200328a87828801620031c6565b92505060606200329d8782880162002eea565b91505092959194509250565b620032b48162002d7c565b8114620032c057600080fd5b50565b600081359050620032d481620032a9565b92915050565b60008060408385031215620032f457620032f362002ace565b5b6000620033048582860162002eea565b92505060206200331785828601620032c3565b9150509250929050565b600080600080608085870312156200333e576200333d62002ace565b5b60006200334e8782880162002eea565b9450506020620033618782880162002eea565b9350506040620033748782880162002e87565b925050606085013567ffffffffffffffff81111562003398576200339762002ad3565b5b620033a68782880162002c07565b91505092959194509250565b60008060408385031215620033cc57620033cb62002ace565b5b6000620033dc8582860162002eea565b9250506020620033ef8582860162002eea565b9150509250929050565b7f4e487b7100000000000000000000000000000000000000000000000000000000600052602260045260246000fd5b600060028204905060018216806200344157607f821691505b602082108103620034575762003456620033f9565b5b50919050565b7f4e487b7100000000000000000000000000000000000000000000000000000000600052603260045260246000fd5b6000606082019050620034a3600083018662002cbf565b620034b2602083018562002f48565b620034c1604083018462002cbf565b949350505050565b6000604082019050620034e0600083018562002cbf565b620034ef602083018462002f48565b9392505050565b6000819050919050565b600067ffffffffffffffff82169050919050565b6000819050919050565b60006200353f620035396200353384620034f6565b62003514565b62003500565b9050919050565b62003551816200351e565b82525050565b60006020820190506200356e600083018462003546565b92915050565b600081905092915050565b60006200358c8262002db6565b62003598818562003574565b9350620035aa81856020860162002dd2565b80840191505092915050565b6000620035c482856200357f565b9150620035d282846200357f565b91508190509392505050565b600081519050919050565b600082825260208201905092915050565b60006200360782620035de565b620036138185620035e9565b93506200362581856020860162002dd2565b620036308162002ae2565b840191505092915050565b600060808201905062003652600083018762002cbf565b62003661602083018662002cbf565b62003670604083018562002f48565b8181036060830152620036848184620035fa565b905095945050505050565b600081519050620036a08162002d19565b92915050565b600060208284031215620036bf57620036be62002ace565b5b6000620036cf848285016200368f565b91505092915050565b7f4e487b7100000000000000000000000000000000000000000000000000000000600052601260045260246000fd5b60006040820190506200371e600083018562002cbf565b8181036020830152620037328184620035fa565b90509392505050565b60008190508160005260206000209050919050565b60006020601f8301049050919050565b600082821b905092915050565b6000600883026200379f7fffffffffffffffffffffffffffffffffffffffffffffffffffffffffffffffff8262003760565b620037ab868362003760565b95508019841693508086168417925050509392505050565b6000620037e4620037de620037d88462002e63565b62003514565b62002e63565b9050919050565b6000819050919050565b6200380083620037c3565b620038186200380f82620037eb565b8484546200376d565b825550505050565b600090565b6200382f62003820565b6200383c818484620037f5565b505050565b5b8181101562003864576200385860008262003825565b60018101905062003842565b5050565b601f821115620038b3576200387d816200373b565b620038888462003750565b8101602085101562003898578190505b620038b0620038a78562003750565b83018262003841565b50505b505050565b600082821c905092915050565b6000620038d860001984600802620038b8565b1980831691505092915050565b6000620038f38383620038c5565b9150826002028217905092915050565b6200390e8262002db6565b67ffffffffffffffff8111156200392a576200392962002af3565b5b62003936825462003428565b6200394382828562003868565b600060209050601f8311600181146200397b576000841562003966578287015190505b620039728582620038e5565b865550620039e2565b601f1984166200398b866200373b565b60005b82811015620039b5578489015182556001820191506020850194506020810190506200398e565b86831015620039d55784890151620039d1601f891682620038c5565b8355505b6001600288020188555050505b505050505050565b7f4e487b7100000000000000000000000000000000000000000000000000000000600052601160045260246000fd5b600062003a268262002e63565b915062003a338362002e63565b925082820390508181111562003a4e5762003a4d620039ea565b5b92915050565b7f4e487b7100000000000000000000000000000000000000000000000000000000600052603160045260246000fdfe60a060405260405161096038038061096083398181016040528101906100259190610684565b610035828261007060201b60201c565b8173ffffffffffffffffffffffffffffffffffffffff1660808173ffffffffffffffffffffffffffffffffffffffff16815250505050610795565b61007f8261016360201b60201c565b8173ffffffffffffffffffffffffffffffffffffffff167f1cf3b03a6cf19fa2baba4df148e9dcabedea7f8a5c07840e207e5c089be95d3e60405160405180910390a26000815111156101505761014a8273ffffffffffffffffffffffffffffffffffffffff16635c60da1b6040518163ffffffff1660e01b8152600401602060405180830381865afa15801561011a573d6000803e3d6000fd5b505050506040513d601f19601f8201168201806040525081019061013e91906106e0565b8261030660201b60201c565b5061015f565b61015e61039060201b60201c565b5b5050565b60008173ffffffffffffffffffffffffffffffffffffffff163b036101bf57806040517f64ced0ec0000000000000000000000000000000000000000000000000000000081526004016101b6919061071c565b60405180910390fd5b806101f27fa3f0ad74e5423aebfd80d3ef4346578335a9a72aeaee59ff6cb3582b35133d5060001b6103cd60201b60201c565b60000160006101000a81548173ffffffffffffffffffffffffffffffffffffffff021916908373ffffffffffffffffffffffffffffffffffffffff16021790555060008173ffffffffffffffffffffffffffffffffffffffff16635c60da1b6040518163ffffffff1660e01b8152600401602060405180830381865afa158015610280573d6000803e3d6000fd5b505050506040513d601f19601f820116820180604052508101906102a491906106e0565b905060008173ffffffffffffffffffffffffffffffffffffffff163b0361030257806040517f4c9c8ce30000000000000000000000000000000000000000000000000000000081526004016102f9919061071c565b60405180910390fd5b5050565b60606000808473ffffffffffffffffffffffffffffffffffffffff1684604051610330919061077e565b600060405180830381855af49150503d806000811461036b576040519150601f19603f3d011682016040523d82523d6000602084013e610370565b606091505b50915091506103868583836103d760201b60201c565b9250505092915050565b60003411156103cb576040517fb398979f00000000000000000000000000000000000000000000000000000000815260040160405180910390fd5b565b6000819050919050565b6060826103f2576103ed8261046c60201b60201c565b610464565b6000825114801561041a575060008473ffffffffffffffffffffffffffffffffffffffff163b145b1561045c57836040517f9996b315000000000000000000000000000000000000000000000000000000008152600401610453919061071c565b60405180910390fd5b819050610465565b5b9392505050565b60008151111561047f5780518082602001fd5b6040517f1425ea4200000000000000000000000000000000000000000000000000000000815260040160405180910390fd5b6000604051905090565b600080fd5b600080fd5b600073ffffffffffffffffffffffffffffffffffffffff82169050919050565b60006104f0826104c5565b9050919050565b610500816104e5565b811461050b57600080fd5b50565b60008151905061051d816104f7565b92915050565b600080fd5b600080fd5b6000601f19601f8301169050919050565b7f4e487b7100000000000000000000000000000000000000000000000000000000600052604160045260246000fd5b6105768261052d565b810181811067ffffffffffffffff821117156105955761059461053e565b5b80604052505050565b60006105a86104b1565b90506105b4828261056d565b919050565b600067ffffffffffffffff8211156105d4576105d361053e565b5b6105dd8261052d565b9050602081019050919050565b60005b838110156106085780820151818401526020810190506105ed565b60008484015250505050565b6000610627610622846105b9565b61059e565b90508281526020810184848401111561064357610642610528565b5b61064e8482856105ea565b509392505050565b600082601f83011261066b5761066a610523565b5b815161067b848260208601610614565b91505092915050565b6000806040838503121561069b5761069a6104bb565b5b60006106a98582860161050e565b925050602083015167ffffffffffffffff8111156106ca576106c96104c0565b5b6106d685828601610656565b9150509250929050565b6000602082840312156106f6576106f56104bb565b5b60006107048482850161050e565b91505092915050565b610716816104e5565b82525050565b6000602082019050610731600083018461070d565b92915050565b600081519050919050565b600081905092915050565b600061075882610737565b6107628185610742565b93506107728185602086016105ea565b80840191505092915050565b600061078a828461074d565b915081905092915050565b6080516101b16107af600039600060c701526101b16000f3fe608060405261000c61000e565b005b61001e610019610020565b61009d565b565b600061002a6100c3565b73ffffffffffffffffffffffffffffffffffffffff16635c60da1b6040518163ffffffff1660e01b8152600401602060405180830381865afa158015610074573d6000803e3d6000fd5b505050506040513d601f19601f82011682018060405250810190610098919061014e565b905090565b3660008037600080366000845af43d6000803e80600081146100be573d6000f35b3d6000fd5b60007f0000000000000000000000000000000000000000000000000000000000000000905090565b600080fd5b600073ffffffffffffffffffffffffffffffffffffffff82169050919050565b600061011b826100f0565b9050919050565b61012b81610110565b811461013657600080fd5b50565b60008151905061014881610122565b92915050565b600060208284031215610164576101636100eb565b5b600061017284828501610139565b9150509291505056fea2646970667358221220dc914d63708d34bf35cd4cf95b1712a9e3b4268c1db10cb9418eaabf5b4df0c664736f6c63430008160033a26469706673582212200a61270fca2f7dffc4eca87140915fa05a6f8aea732df7be2354a04ac0b43f4764736f6c63430008160033",
  "linkReferences": {},
  "deployedLinkReferences": {}
}